{
  "abi": [
    {
      "inputs": [],
      "stateMutability": "nonpayable",
      "type": "constructor"
    },
    {
      "inputs": [],
      "name": "AlreadySet",
      "type": "error"
    },
    {
      "inputs": [],
      "name": "IncorrectEthSacrifice",
      "type": "error"
    },
    {
      "inputs": [],
      "name": "InsiderMintsExceeded",
      "type": "error"
    },
    {
      "inputs": [],
      "name": "NotFactory",
      "type": "error"
    },
    {
      "inputs": [],
      "name": "NotLiquidator",
      "type": "error"
    },
    {
      "inputs": [],
      "name": "NotOwner",
      "type": "error"
    },
    {
      "inputs": [],
      "name": "PublicMintsExceeded",
      "type": "error"
    },
    {
      "anonymous": false,
      "inputs": [
        {
          "indexed": true,
          "internalType": "address",
          "name": "owner",
          "type": "address"
        },
        {
          "indexed": true,
          "internalType": "address",
          "name": "approved",
          "type": "address"
        },
        {
          "indexed": true,
          "internalType": "uint256",
          "name": "tokenId",
          "type": "uint256"
        }
      ],
      "name": "Approval",
      "type": "event"
    },
    {
      "anonymous": false,
      "inputs": [
        {
          "indexed": true,
          "internalType": "address",
          "name": "owner",
          "type": "address"
        },
        {
          "indexed": true,
          "internalType": "address",
          "name": "operator",
          "type": "address"
        },
        {
          "indexed": false,
          "internalType": "bool",
          "name": "approved",
          "type": "bool"
        }
      ],
      "name": "ApprovalForAll",
      "type": "event"
    },
    {
      "anonymous": false,
      "inputs": [
        {
          "indexed": true,
          "internalType": "uint256",
          "name": "id",
          "type": "uint256"
        },
        {
          "indexed": true,
          "internalType": "address",
          "name": "operator",
          "type": "address"
        }
      ],
      "name": "Grant",
      "type": "event"
    },
    {
      "anonymous": false,
      "inputs": [
        {
          "indexed": true,
          "internalType": "uint256",
          "name": "id",
          "type": "uint256"
        },
        {
          "indexed": true,
          "internalType": "address",
          "name": "to",
          "type": "address"
        }
      ],
      "name": "MintNft",
      "type": "event"
    },
    {
      "anonymous": false,
      "inputs": [
        {
          "indexed": true,
          "internalType": "address",
          "name": "user",
          "type": "address"
        },
        {
          "indexed": true,
          "internalType": "address",
          "name": "newOwner",
          "type": "address"
        }
      ],
      "name": "OwnershipTransferred",
      "type": "event"
    },
    {
      "anonymous": false,
      "inputs": [
        {
          "indexed": true,
          "internalType": "uint256",
          "name": "id",
          "type": "uint256"
        },
        {
          "indexed": true,
          "internalType": "address",
          "name": "operator",
          "type": "address"
        }
      ],
      "name": "Revoke",
      "type": "event"
    },
    {
      "anonymous": false,
      "inputs": [
        {
          "indexed": true,
          "internalType": "address",
          "name": "from",
          "type": "address"
        },
        {
          "indexed": true,
          "internalType": "address",
          "name": "to",
          "type": "address"
        },
        {
          "indexed": true,
          "internalType": "uint256",
          "name": "tokenId",
          "type": "uint256"
        }
      ],
      "name": "Transfer",
      "type": "event"
    },
    {
      "inputs": [],
      "name": "ETH_SACRIFICE",
      "outputs": [
        {
          "internalType": "uint256",
          "name": "",
          "type": "uint256"
        }
      ],
      "stateMutability": "view",
      "type": "function"
    },
    {
      "inputs": [],
      "name": "INSIDER_MINTS",
      "outputs": [
        {
          "internalType": "uint256",
          "name": "",
          "type": "uint256"
        }
      ],
      "stateMutability": "view",
      "type": "function"
    },
    {
      "inputs": [],
      "name": "PUBLIC_MINTS",
      "outputs": [
        {
          "internalType": "uint256",
          "name": "",
          "type": "uint256"
        }
      ],
      "stateMutability": "view",
      "type": "function"
    },
    {
      "inputs": [
        {
          "internalType": "address",
          "name": "to",
          "type": "address"
        },
        {
          "internalType": "uint256",
          "name": "tokenId",
          "type": "uint256"
        }
      ],
      "name": "approve",
      "outputs": [],
      "stateMutability": "nonpayable",
      "type": "function"
    },
    {
      "inputs": [
        {
          "internalType": "address",
          "name": "owner",
          "type": "address"
        }
      ],
      "name": "balanceOf",
      "outputs": [
        {
          "internalType": "uint256",
          "name": "",
          "type": "uint256"
        }
      ],
      "stateMutability": "view",
      "type": "function"
    },
    {
      "inputs": [],
      "name": "factory",
      "outputs": [
        {
          "internalType": "address",
          "name": "",
          "type": "address"
        }
      ],
      "stateMutability": "view",
      "type": "function"
    },
    {
      "inputs": [
        {
          "internalType": "uint256",
          "name": "tokenId",
          "type": "uint256"
        }
      ],
      "name": "getApproved",
      "outputs": [
        {
          "internalType": "address",
          "name": "",
          "type": "address"
        }
      ],
      "stateMutability": "view",
      "type": "function"
    },
    {
      "inputs": [
        {
          "internalType": "uint256",
          "name": "id",
          "type": "uint256"
        },
        {
          "internalType": "address",
          "name": "operator",
          "type": "address"
        }
      ],
      "name": "grant",
      "outputs": [],
      "stateMutability": "nonpayable",
      "type": "function"
    },
    {
      "inputs": [
        {
          "internalType": "uint256",
          "name": "id",
          "type": "uint256"
        },
        {
          "internalType": "address",
          "name": "operator",
          "type": "address"
        }
      ],
      "name": "hasPermission",
      "outputs": [
        {
          "internalType": "bool",
          "name": "",
          "type": "bool"
        }
      ],
      "stateMutability": "view",
      "type": "function"
    },
    {
      "inputs": [
        {
          "internalType": "uint256",
          "name": "",
          "type": "uint256"
        }
      ],
      "name": "id2lastOwnershipChange",
      "outputs": [
        {
          "internalType": "uint256",
          "name": "",
          "type": "uint256"
        }
      ],
      "stateMutability": "view",
      "type": "function"
    },
    {
      "inputs": [
        {
          "internalType": "uint256",
          "name": "",
          "type": "uint256"
        },
        {
          "internalType": "address",
          "name": "",
          "type": "address"
        }
      ],
      "name": "id2permission",
      "outputs": [
        {
          "internalType": "bool",
          "name": "hasPermission",
          "type": "bool"
        },
        {
          "internalType": "uint248",
          "name": "lastUpdated",
          "type": "uint248"
        }
      ],
      "stateMutability": "view",
      "type": "function"
    },
    {
      "inputs": [],
      "name": "insiderMints",
      "outputs": [
        {
          "internalType": "uint256",
          "name": "",
          "type": "uint256"
        }
      ],
      "stateMutability": "view",
      "type": "function"
    },
    {
      "inputs": [
        {
          "internalType": "address",
          "name": "owner",
          "type": "address"
        },
        {
          "internalType": "address",
          "name": "operator",
          "type": "address"
        }
      ],
      "name": "isApprovedForAll",
      "outputs": [
        {
          "internalType": "bool",
          "name": "",
          "type": "bool"
        }
      ],
      "stateMutability": "view",
      "type": "function"
    },
    {
      "inputs": [
        {
          "internalType": "address",
          "name": "",
          "type": "address"
        }
      ],
      "name": "isLiquidator",
      "outputs": [
        {
          "internalType": "bool",
          "name": "",
          "type": "bool"
        }
      ],
      "stateMutability": "view",
      "type": "function"
    },
    {
      "inputs": [
        {
          "internalType": "uint256",
          "name": "id",
          "type": "uint256"
        },
        {
          "internalType": "address",
          "name": "to",
          "type": "address"
        }
      ],
      "name": "liquidate",
      "outputs": [],
      "stateMutability": "nonpayable",
      "type": "function"
    },
    {
      "inputs": [
        {
          "internalType": "address",
          "name": "to",
          "type": "address"
        }
      ],
      "name": "mintInsiderNft",
      "outputs": [
        {
          "internalType": "uint256",
          "name": "",
          "type": "uint256"
        }
      ],
      "stateMutability": "nonpayable",
      "type": "function"
    },
    {
      "inputs": [
        {
          "internalType": "address",
          "name": "to",
          "type": "address"
        }
      ],
      "name": "mintNft",
      "outputs": [
        {
          "internalType": "uint256",
          "name": "",
          "type": "uint256"
        }
      ],
      "stateMutability": "payable",
      "type": "function"
    },
    {
      "inputs": [],
      "name": "name",
      "outputs": [
        {
          "internalType": "string",
          "name": "",
          "type": "string"
        }
      ],
      "stateMutability": "view",
      "type": "function"
    },
    {
      "inputs": [],
      "name": "owner",
      "outputs": [
        {
          "internalType": "address",
          "name": "",
          "type": "address"
        }
      ],
      "stateMutability": "view",
      "type": "function"
    },
    {
      "inputs": [
        {
          "internalType": "uint256",
          "name": "tokenId",
          "type": "uint256"
        }
      ],
      "name": "ownerOf",
      "outputs": [
        {
          "internalType": "address",
          "name": "",
          "type": "address"
        }
      ],
      "stateMutability": "view",
      "type": "function"
    },
    {
      "inputs": [],
      "name": "publicMints",
      "outputs": [
        {
          "internalType": "uint256",
          "name": "",
          "type": "uint256"
        }
      ],
      "stateMutability": "view",
      "type": "function"
    },
    {
      "inputs": [
        {
          "internalType": "uint256",
          "name": "id",
          "type": "uint256"
        },
        {
          "internalType": "address",
          "name": "operator",
          "type": "address"
        }
      ],
      "name": "revoke",
      "outputs": [],
      "stateMutability": "nonpayable",
      "type": "function"
    },
    {
      "inputs": [
        {
          "internalType": "address",
          "name": "from",
          "type": "address"
        },
        {
          "internalType": "address",
          "name": "to",
          "type": "address"
        },
        {
          "internalType": "uint256",
          "name": "tokenId",
          "type": "uint256"
        }
      ],
      "name": "safeTransferFrom",
      "outputs": [],
      "stateMutability": "nonpayable",
      "type": "function"
    },
    {
      "inputs": [
        {
          "internalType": "address",
          "name": "from",
          "type": "address"
        },
        {
          "internalType": "address",
          "name": "to",
          "type": "address"
        },
        {
          "internalType": "uint256",
          "name": "tokenId",
          "type": "uint256"
        },
        {
          "internalType": "bytes",
          "name": "data",
          "type": "bytes"
        }
      ],
      "name": "safeTransferFrom",
      "outputs": [],
      "stateMutability": "nonpayable",
      "type": "function"
    },
    {
      "inputs": [
        {
          "internalType": "address",
          "name": "operator",
          "type": "address"
        },
        {
          "internalType": "bool",
          "name": "approved",
          "type": "bool"
        }
      ],
      "name": "setApprovalForAll",
      "outputs": [],
      "stateMutability": "nonpayable",
      "type": "function"
    },
    {
      "inputs": [
        {
          "internalType": "address",
          "name": "_factory",
          "type": "address"
        }
      ],
      "name": "setFactory",
      "outputs": [],
      "stateMutability": "nonpayable",
      "type": "function"
    },
    {
      "inputs": [
        {
          "internalType": "address",
          "name": "liquidator",
          "type": "address"
        }
      ],
      "name": "setLiquidator",
      "outputs": [],
      "stateMutability": "nonpayable",
      "type": "function"
    },
    {
      "inputs": [
        {
          "internalType": "bytes4",
          "name": "interfaceId",
          "type": "bytes4"
        }
      ],
      "name": "supportsInterface",
      "outputs": [
        {
          "internalType": "bool",
          "name": "",
          "type": "bool"
        }
      ],
      "stateMutability": "view",
      "type": "function"
    },
    {
      "inputs": [],
      "name": "symbol",
      "outputs": [
        {
          "internalType": "string",
          "name": "",
          "type": "string"
        }
      ],
      "stateMutability": "view",
      "type": "function"
    },
    {
      "inputs": [
        {
          "internalType": "uint256",
          "name": "index",
          "type": "uint256"
        }
      ],
      "name": "tokenByIndex",
      "outputs": [
        {
          "internalType": "uint256",
          "name": "",
          "type": "uint256"
        }
      ],
      "stateMutability": "view",
      "type": "function"
    },
    {
      "inputs": [
        {
          "internalType": "address",
          "name": "owner",
          "type": "address"
        },
        {
          "internalType": "uint256",
          "name": "index",
          "type": "uint256"
        }
      ],
      "name": "tokenOfOwnerByIndex",
      "outputs": [
        {
          "internalType": "uint256",
          "name": "",
          "type": "uint256"
        }
      ],
      "stateMutability": "view",
      "type": "function"
    },
    {
      "inputs": [
        {
          "internalType": "uint256",
          "name": "tokenId",
          "type": "uint256"
        }
      ],
      "name": "tokenURI",
      "outputs": [
        {
          "internalType": "string",
          "name": "",
          "type": "string"
        }
      ],
      "stateMutability": "view",
      "type": "function"
    },
    {
      "inputs": [],
      "name": "totalSupply",
      "outputs": [
        {
          "internalType": "uint256",
          "name": "",
          "type": "uint256"
        }
      ],
      "stateMutability": "view",
      "type": "function"
    },
    {
      "inputs": [
        {
          "internalType": "address",
          "name": "from",
          "type": "address"
        },
        {
          "internalType": "address",
          "name": "to",
          "type": "address"
        },
        {
          "internalType": "uint256",
          "name": "tokenId",
          "type": "uint256"
        }
      ],
      "name": "transferFrom",
      "outputs": [],
      "stateMutability": "nonpayable",
      "type": "function"
    },
    {
      "inputs": [
        {
          "internalType": "address",
          "name": "newOwner",
          "type": "address"
        }
      ],
      "name": "transferOwnership",
      "outputs": [],
      "stateMutability": "nonpayable",
      "type": "function"
    }
  ],
  "bytecode": {
    "object": "0x60806040523480156200001157600080fd5b503360405180604001604052806008815260200167111e58590813919560c21b815250604051806040016040528060048152602001631913919560e21b81525081600090816200006291906200016b565b5060016200007182826200016b565b5050600a80546001600160a01b0319166001600160a01b0384169081179091556040519091506000907f8be0079c531659141344cd1fd0a4f28419497f9722a3daafe3b4186f6b6457e0908290a35062000237565b634e487b7160e01b600052604160045260246000fd5b600181811c90821680620000f157607f821691505b6020821081036200011257634e487b7160e01b600052602260045260246000fd5b50919050565b601f8211156200016657600081815260208120601f850160051c81016020861015620001415750805b601f850160051c820191505b8181101562000162578281556001016200014d565b5050505b505050565b81516001600160401b03811115620001875762000187620000c6565b6200019f81620001988454620000dc565b8462000118565b602080601f831160018114620001d75760008415620001be5750858301515b600019600386901b1c1916600185901b17855562000162565b600085815260208120601f198616915b828110156200020857888601518255948401946001909101908401620001e7565b5085821015620002275787850151600019600388901b60f8161c191681555b5050505050600190811b01905550565b612ec180620002476000396000f3fe6080604052600436106102345760003560e01c80634f6ccce71161013857806399976134116100b0578063c45a01551161007f578063e985e9c511610064578063e985e9c5146106f4578063e9c2e14b1461074a578063f2fde38b1461075d57600080fd5b8063c45a0155146106a7578063c87b56dd146106d457600080fd5b806399976134146105a0578063a22cb4651461063a578063b3c6fb9c1461065a578063b88d4fde1461068757600080fd5b80636352211e11610107578063887d7c3e116100ec578063887d7c3e1461053e5780638da5cb5b1461055e57806395d89b411461058b57600080fd5b80636352211e146104fe57806370a082311461051e57600080fd5b80634f6ccce71461046e578063529a356f1461048e5780635bb47808146104be5780635fae8b3d146104de57600080fd5b806320d154da116101cb57806323b872dd1161019a5780632f745c591161017f5780632f745c591461040e57806342842e0e1461042e5780634cf158581461044e57600080fd5b806323b872dd146103d8578063279e4a63146103f857600080fd5b806320d154da1461037057806321157246146103905780632240315c146103a65780632336296a146103c257600080fd5b8063095ea7b311610207578063095ea7b3146102f75780630b56f8b61461031757806318160ddd146103455780631bb85b4f1461035a57600080fd5b806301c76f811461023957806301ffc9a71461025b57806306fdde0314610290578063081812fc146102b2575b600080fd5b34801561024557600080fd5b50610259610254366004612997565b61077d565b005b34801561026757600080fd5b5061027b6102763660046129e0565b61081d565b60405190151581526020015b60405180910390f35b34801561029c57600080fd5b506102a5610879565b6040516102879190612a6b565b3480156102be57600080fd5b506102d26102cd366004612a7e565b61090b565b60405173ffffffffffffffffffffffffffffffffffffffff9091168152602001610287565b34801561030357600080fd5b50610259610312366004612a97565b61093f565b34801561032357600080fd5b50610337610332366004612997565b610ad0565b604051908152602001610287565b34801561035157600080fd5b50600854610337565b34801561036657600080fd5b506103376106a481565b34801561037c57600080fd5b5061025961038b366004612ac1565b610bb1565b34801561039c57600080fd5b5061033761012c81565b3480156103b257600080fd5b5061033767016345785d8a000081565b3480156103ce57600080fd5b50610337600c5481565b3480156103e457600080fd5b506102596103f3366004612aed565b610c6a565b34801561040457600080fd5b50610337600b5481565b34801561041a57600080fd5b50610337610429366004612a97565b610d0b565b34801561043a57600080fd5b50610259610449366004612aed565b610dda565b34801561045a57600080fd5b5061027b610469366004612ac1565b610df5565b34801561047a57600080fd5b50610337610489366004612a7e565b610ed6565b34801561049a57600080fd5b5061027b6104a9366004612997565b600e6020526000908152604090205460ff1681565b3480156104ca57600080fd5b506102596104d9366004612997565b610f94565b3480156104ea57600080fd5b506102596104f9366004612ac1565b6110ac565b34801561050a57600080fd5b506102d2610519366004612a7e565b61110c565b34801561052a57600080fd5b50610337610539366004612997565b611198565b34801561054a57600080fd5b50610259610559366004612ac1565b611266565b34801561056a57600080fd5b50600a546102d29073ffffffffffffffffffffffffffffffffffffffff1681565b34801561059757600080fd5b506102a5611368565b3480156105ac57600080fd5b506106036105bb366004612ac1565b600f60209081526000928352604080842090915290825290205460ff81169061010090047effffffffffffffffffffffffffffffffffffffffffffffffffffffffffffff1682565b6040805192151583527effffffffffffffffffffffffffffffffffffffffffffffffffffffffffffff909116602083015201610287565b34801561064657600080fd5b50610259610655366004612b29565b611377565b34801561066657600080fd5b50610337610675366004612a7e565b60106020526000908152604090205481565b34801561069357600080fd5b506102596106a2366004612b94565b611382565b3480156106b357600080fd5b50600d546102d29073ffffffffffffffffffffffffffffffffffffffff1681565b3480156106e057600080fd5b506102a56106ef366004612a7e565b61142a565b34801561070057600080fd5b5061027b61070f366004612c8e565b73ffffffffffffffffffffffffffffffffffffffff918216600090815260056020908152604080832093909416825291909152205460ff1690565b610337610758366004612997565b61149d565b34801561076957600080fd5b50610259610778366004612997565b61153a565b600d5473ffffffffffffffffffffffffffffffffffffffff1633146107ce576040517f32cc723600000000000000000000000000000000000000000000000000000000815260040160405180910390fd5b73ffffffffffffffffffffffffffffffffffffffff166000908152600e6020526040902080547fffffffffffffffffffffffffffffffffffffffffffffffffffffffffffffff00166001179055565b60007fffffffff0000000000000000000000000000000000000000000000000000000082167f780e9d6300000000000000000000000000000000000000000000000000000000148061087357506108738261162c565b92915050565b60606000805461088890612cb8565b80601f01602080910402602001604051908101604052809291908181526020018280546108b490612cb8565b80156109015780601f106108d657610100808354040283529160200191610901565b820191906000526020600020905b8154815290600101906020018083116108e457829003601f168201915b5050505050905090565b60006109168261170f565b5060009081526004602052604090205473ffffffffffffffffffffffffffffffffffffffff1690565b600061094a8261110c565b90508073ffffffffffffffffffffffffffffffffffffffff168373ffffffffffffffffffffffffffffffffffffffff1603610a0c576040517f08c379a000000000000000000000000000000000000000000000000000000000815260206004820152602160248201527f4552433732313a20617070726f76616c20746f2063757272656e74206f776e6560448201527f720000000000000000000000000000000000000000000000000000000000000060648201526084015b60405180910390fd5b3373ffffffffffffffffffffffffffffffffffffffff82161480610a355750610a35813361070f565b610ac1576040517f08c379a000000000000000000000000000000000000000000000000000000000815260206004820152603d60248201527f4552433732313a20617070726f76652063616c6c6572206973206e6f7420746f60448201527f6b656e206f776e6572206f7220617070726f76656420666f7220616c6c0000006064820152608401610a03565b610acb838361179d565b505050565b600a5460009073ffffffffffffffffffffffffffffffffffffffff163314610b54576040517f08c379a000000000000000000000000000000000000000000000000000000000815260206004820152600c60248201527f554e415554484f52495a454400000000000000000000000000000000000000006044820152606401610a03565b61012c600b60008154610b6690612d3a565b91829055501115610ba3576040517f9652890b00000000000000000000000000000000000000000000000000000000815260040160405180910390fd5b6108738261183d565b919050565b8133610bbc8261110c565b73ffffffffffffffffffffffffffffffffffffffff1614610c09576040517f30cd747100000000000000000000000000000000000000000000000000000000815260040160405180910390fd5b6000838152600f6020908152604080832073ffffffffffffffffffffffffffffffffffffffff8616808552925280832083905551909185917fd5d64031e0f55cf42bc3b7d0462f8404a4d63f7ccf84be9510cd6a5300552e429190a3505050565b610c74338261189e565b610d00576040517f08c379a000000000000000000000000000000000000000000000000000000000815260206004820152602d60248201527f4552433732313a2063616c6c6572206973206e6f7420746f6b656e206f776e6560448201527f72206f7220617070726f766564000000000000000000000000000000000000006064820152608401610a03565b610acb83838361195e565b6000610d1683611198565b8210610da4576040517f08c379a000000000000000000000000000000000000000000000000000000000815260206004820152602b60248201527f455243373231456e756d657261626c653a206f776e657220696e646578206f7560448201527f74206f6620626f756e64730000000000000000000000000000000000000000006064820152608401610a03565b5073ffffffffffffffffffffffffffffffffffffffff919091166000908152600660209081526040808320938352929052205490565b610acb83838360405180602001604052806000815250611382565b60008173ffffffffffffffffffffffffffffffffffffffff16610e178461110c565b73ffffffffffffffffffffffffffffffffffffffff161480610ecf57506000838152600f6020908152604080832073ffffffffffffffffffffffffffffffffffffffff8616845290915290205460ff168015610ecf5750600083815260106020908152604080832054600f835281842073ffffffffffffffffffffffffffffffffffffffff871685529092529091205461010090047effffffffffffffffffffffffffffffffffffffffffffffffffffffffffffff16115b9392505050565b6000610ee160085490565b8210610f6f576040517f08c379a000000000000000000000000000000000000000000000000000000000815260206004820152602c60248201527f455243373231456e756d657261626c653a20676c6f62616c20696e646578206f60448201527f7574206f6620626f756e647300000000000000000000000000000000000000006064820152608401610a03565b60088281548110610f8257610f82612d72565b90600052602060002001549050919050565b600a5473ffffffffffffffffffffffffffffffffffffffff163314611015576040517f08c379a000000000000000000000000000000000000000000000000000000000815260206004820152600c60248201527f554e415554484f52495a454400000000000000000000000000000000000000006044820152606401610a03565b600d5473ffffffffffffffffffffffffffffffffffffffff1615611065576040517fa741a04500000000000000000000000000000000000000000000000000000000815260040160405180910390fd5b600d80547fffffffffffffffffffffffff00000000000000000000000000000000000000001673ffffffffffffffffffffffffffffffffffffffff92909216919091179055565b336000908152600e602052604090205460ff166110f5576040517fd891a1b700000000000000000000000000000000000000000000000000000000815260040160405180910390fd5b6111086111018361110c565b828461195e565b5050565b60008181526002602052604081205473ffffffffffffffffffffffffffffffffffffffff1680610873576040517f08c379a000000000000000000000000000000000000000000000000000000000815260206004820152601860248201527f4552433732313a20696e76616c696420746f6b656e20494400000000000000006044820152606401610a03565b600073ffffffffffffffffffffffffffffffffffffffff821661123d576040517f08c379a000000000000000000000000000000000000000000000000000000000815260206004820152602960248201527f4552433732313a2061646472657373207a65726f206973206e6f74206120766160448201527f6c6964206f776e657200000000000000000000000000000000000000000000006064820152608401610a03565b5073ffffffffffffffffffffffffffffffffffffffff1660009081526003602052604090205490565b81336112718261110c565b73ffffffffffffffffffffffffffffffffffffffff16146112be576040517f30cd747100000000000000000000000000000000000000000000000000000000815260040160405180910390fd5b604080518082018252600181527effffffffffffffffffffffffffffffffffffffffffffffffffffffffffffff43811660208084019182526000888152600f825285812073ffffffffffffffffffffffffffffffffffffffff89168083529252858120945192519093166101000291151560ff16919091179092559151909185917fae114a60e55fc87cd2337e3dd95e4e5d97b626c4025f203a9c2c1b3b610032e19190a3505050565b60606001805461088890612cb8565b611108338383611c66565b61138c338361189e565b611418576040517f08c379a000000000000000000000000000000000000000000000000000000000815260206004820152602d60248201527f4552433732313a2063616c6c6572206973206e6f7420746f6b656e206f776e6560448201527f72206f7220617070726f766564000000000000000000000000000000000000006064820152608401610a03565b61142484848484611d93565b50505050565b60606114358261170f565b600061144c60408051602081019091526000815290565b9050600081511161146c5760405180602001604052806000815250610ecf565b8061147684611e36565b604051602001611487929190612da1565b6040516020818303038152906040529392505050565b60006106a4600c600081546114b190612d3a565b918290555011156114ee576040517ff7e5317900000000000000000000000000000000000000000000000000000000815260040160405180910390fd5b67016345785d8a0000341461152f576040517f31b5f2ab00000000000000000000000000000000000000000000000000000000815260040160405180910390fd5b610ba3600034611ef4565b600a5473ffffffffffffffffffffffffffffffffffffffff1633146115bb576040517f08c379a000000000000000000000000000000000000000000000000000000000815260206004820152600c60248201527f554e415554484f52495a454400000000000000000000000000000000000000006044820152606401610a03565b600a80547fffffffffffffffffffffffff00000000000000000000000000000000000000001673ffffffffffffffffffffffffffffffffffffffff831690811790915560405133907f8be0079c531659141344cd1fd0a4f28419497f9722a3daafe3b4186f6b6457e090600090a350565b60007fffffffff0000000000000000000000000000000000000000000000000000000082167f80ac58cd0000000000000000000000000000000000000000000000000000000014806116bf57507fffffffff0000000000000000000000000000000000000000000000000000000082167f5b5e139f00000000000000000000000000000000000000000000000000000000145b8061087357507f01ffc9a7000000000000000000000000000000000000000000000000000000007fffffffff00000000000000000000000000000000000000000000000000000000831614610873565b60008181526002602052604090205473ffffffffffffffffffffffffffffffffffffffff1661179a576040517f08c379a000000000000000000000000000000000000000000000000000000000815260206004820152601860248201527f4552433732313a20696e76616c696420746f6b656e20494400000000000000006044820152606401610a03565b50565b600081815260046020526040902080547fffffffffffffffffffffffff00000000000000000000000000000000000000001673ffffffffffffffffffffffffffffffffffffffff841690811790915581906117f78261110c565b73ffffffffffffffffffffffffffffffffffffffff167f8c5be1e5ebec7d5bd14f71427d1e84f3dd0314c0f7b2291e5b200ac8c7c3b92560405160405180910390a45050565b60008061184960085490565b90506118558382611f69565b60405173ffffffffffffffffffffffffffffffffffffffff84169082907f97e1dc560b408f366de12df1bd5ca8ef322d846959ccec261e46f96562d9cf0090600090a392915050565b6000806118aa8361110c565b90508073ffffffffffffffffffffffffffffffffffffffff168473ffffffffffffffffffffffffffffffffffffffff161480611918575073ffffffffffffffffffffffffffffffffffffffff80821660009081526005602090815260408083209388168352929052205460ff165b8061195657508373ffffffffffffffffffffffffffffffffffffffff1661193e8461090b565b73ffffffffffffffffffffffffffffffffffffffff16145b949350505050565b8273ffffffffffffffffffffffffffffffffffffffff1661197e8261110c565b73ffffffffffffffffffffffffffffffffffffffff1614611a21576040517f08c379a000000000000000000000000000000000000000000000000000000000815260206004820152602560248201527f4552433732313a207472616e736665722066726f6d20696e636f72726563742060448201527f6f776e65720000000000000000000000000000000000000000000000000000006064820152608401610a03565b73ffffffffffffffffffffffffffffffffffffffff8216611ac3576040517f08c379a0000000000000000000000000000000000000000000000000000000008152602060048201526024808201527f4552433732313a207472616e7366657220746f20746865207a65726f2061646460448201527f72657373000000000000000000000000000000000000000000000000000000006064820152608401610a03565b611ad08383836001611f83565b8273ffffffffffffffffffffffffffffffffffffffff16611af08261110c565b73ffffffffffffffffffffffffffffffffffffffff1614611b93576040517f08c379a000000000000000000000000000000000000000000000000000000000815260206004820152602560248201527f4552433732313a207472616e736665722066726f6d20696e636f72726563742060448201527f6f776e65720000000000000000000000000000000000000000000000000000006064820152608401610a03565b600081815260046020908152604080832080547fffffffffffffffffffffffff000000000000000000000000000000000000000090811690915573ffffffffffffffffffffffffffffffffffffffff8781168086526003855283862080547fffffffffffffffffffffffffffffffffffffffffffffffffffffffffffffffff01905590871680865283862080546001019055868652600290945282852080549092168417909155905184937fddf252ad1be2c89b69c2b068fc378daa952ba7f163c4a11628f55a4df523b3ef91a4505050565b8173ffffffffffffffffffffffffffffffffffffffff168373ffffffffffffffffffffffffffffffffffffffff1603611cfb576040517f08c379a000000000000000000000000000000000000000000000000000000000815260206004820152601960248201527f4552433732313a20617070726f766520746f2063616c6c6572000000000000006044820152606401610a03565b73ffffffffffffffffffffffffffffffffffffffff83811660008181526005602090815260408083209487168084529482529182902080547fffffffffffffffffffffffffffffffffffffffffffffffffffffffffffffff001686151590811790915591519182527f17307eab39ab6107e8899845ad3d59bd9653f200f220920489ca2b5937696c31910160405180910390a3505050565b611d9e84848461195e565b611daa84848484611fa5565b611424576040517f08c379a000000000000000000000000000000000000000000000000000000000815260206004820152603260248201527f4552433732313a207472616e7366657220746f206e6f6e20455243373231526560448201527f63656976657220696d706c656d656e74657200000000000000000000000000006064820152608401610a03565b60606000611e4383612198565b600101905060008167ffffffffffffffff811115611e6357611e63612b65565b6040519080825280601f01601f191660200182016040528015611e8d576020820181803683370190505b5090508181016020015b7fffffffffffffffffffffffffffffffffffffffffffffffffffffffffffffffff017f3031323334353637383961626364656600000000000000000000000000000000600a86061a8153600a8504945084611e9757509392505050565b600080600080600085875af1905080610acb576040517f08c379a000000000000000000000000000000000000000000000000000000000815260206004820152601360248201527f4554485f5452414e534645525f4641494c4544000000000000000000000000006044820152606401610a03565b61110882826040518060200160405280600081525061227a565b611f8f8484848461231d565b5060009081526010602052604090204390555050565b600073ffffffffffffffffffffffffffffffffffffffff84163b1561218d576040517f150b7a0200000000000000000000000000000000000000000000000000000000815273ffffffffffffffffffffffffffffffffffffffff85169063150b7a029061201c903390899088908890600401612dd0565b6020604051808303816000875af1925050508015612075575060408051601f3d9081017fffffffffffffffffffffffffffffffffffffffffffffffffffffffffffffffe016820190925261207291810190612e19565b60015b612142573d8080156120a3576040519150601f19603f3d011682016040523d82523d6000602084013e6120a8565b606091505b50805160000361213a576040517f08c379a000000000000000000000000000000000000000000000000000000000815260206004820152603260248201527f4552433732313a207472616e7366657220746f206e6f6e20455243373231526560448201527f63656976657220696d706c656d656e74657200000000000000000000000000006064820152608401610a03565b805181602001fd5b7fffffffff00000000000000000000000000000000000000000000000000000000167f150b7a0200000000000000000000000000000000000000000000000000000000149050611956565b506001949350505050565b6000807a184f03e93ff9f4daa797ed6e38ed64bf6a1f01000000000000000083106121e1577a184f03e93ff9f4daa797ed6e38ed64bf6a1f010000000000000000830492506040015b6d04ee2d6d415b85acef8100000000831061220d576d04ee2d6d415b85acef8100000000830492506020015b662386f26fc10000831061222b57662386f26fc10000830492506010015b6305f5e1008310612243576305f5e100830492506008015b612710831061225757612710830492506004015b60648310612269576064830492506002015b600a83106108735760010192915050565b61228483836124cd565b6122916000848484611fa5565b610acb576040517f08c379a000000000000000000000000000000000000000000000000000000000815260206004820152603260248201527f4552433732313a207472616e7366657220746f206e6f6e20455243373231526560448201527f63656976657220696d706c656d656e74657200000000000000000000000000006064820152608401610a03565b61232984848484612700565b60018111156123ba576040517f08c379a000000000000000000000000000000000000000000000000000000000815260206004820152603560248201527f455243373231456e756d657261626c653a20636f6e736563757469766520747260448201527f616e7366657273206e6f7420737570706f7274656400000000000000000000006064820152608401610a03565b8173ffffffffffffffffffffffffffffffffffffffff85166124235761241e81600880546000838152600960205260408120829055600182018355919091527ff3f7a9fe364faab93b216da50a3214154f22a0a2b415b23a84c8169e8b636ee30155565b612460565b8373ffffffffffffffffffffffffffffffffffffffff168573ffffffffffffffffffffffffffffffffffffffff16146124605761246085826127bc565b73ffffffffffffffffffffffffffffffffffffffff84166124895761248481612873565b6124c6565b8473ffffffffffffffffffffffffffffffffffffffff168473ffffffffffffffffffffffffffffffffffffffff16146124c6576124c68482612922565b5050505050565b73ffffffffffffffffffffffffffffffffffffffff821661254a576040517f08c379a000000000000000000000000000000000000000000000000000000000815260206004820181905260248201527f4552433732313a206d696e7420746f20746865207a65726f20616464726573736044820152606401610a03565b60008181526002602052604090205473ffffffffffffffffffffffffffffffffffffffff16156125d6576040517f08c379a000000000000000000000000000000000000000000000000000000000815260206004820152601c60248201527f4552433732313a20746f6b656e20616c7265616479206d696e746564000000006044820152606401610a03565b6125e4600083836001611f83565b60008181526002602052604090205473ffffffffffffffffffffffffffffffffffffffff1615612670576040517f08c379a000000000000000000000000000000000000000000000000000000000815260206004820152601c60248201527f4552433732313a20746f6b656e20616c7265616479206d696e746564000000006044820152606401610a03565b73ffffffffffffffffffffffffffffffffffffffff8216600081815260036020908152604080832080546001019055848352600290915280822080547fffffffffffffffffffffffff0000000000000000000000000000000000000000168417905551839291907fddf252ad1be2c89b69c2b068fc378daa952ba7f163c4a11628f55a4df523b3ef908290a45050565b60018111156114245773ffffffffffffffffffffffffffffffffffffffff8416156127605773ffffffffffffffffffffffffffffffffffffffff84166000908152600360205260408120805483929061275a908490612e36565b90915550505b73ffffffffffffffffffffffffffffffffffffffff8316156114245773ffffffffffffffffffffffffffffffffffffffff8316600090815260036020526040812080548392906127b1908490612e49565b909155505050505050565b600060016127c984611198565b6127d39190612e36565b6000838152600760205260409020549091508082146128335773ffffffffffffffffffffffffffffffffffffffff841660009081526006602090815260408083208584528252808320548484528184208190558352600790915290208190555b50600091825260076020908152604080842084905573ffffffffffffffffffffffffffffffffffffffff9094168352600681528383209183525290812055565b60085460009061288590600190612e36565b600083815260096020526040812054600880549394509092849081106128ad576128ad612d72565b9060005260206000200154905080600883815481106128ce576128ce612d72565b600091825260208083209091019290925582815260099091526040808220849055858252812055600880548061290657612906612e5c565b6001900381819060005260206000200160009055905550505050565b600061292d83611198565b73ffffffffffffffffffffffffffffffffffffffff9093166000908152600660209081526040808320868452825280832085905593825260079052919091209190915550565b803573ffffffffffffffffffffffffffffffffffffffff81168114610bac57600080fd5b6000602082840312156129a957600080fd5b610ecf82612973565b7fffffffff000000000000000000000000000000000000000000000000000000008116811461179a57600080fd5b6000602082840312156129f257600080fd5b8135610ecf816129b2565b60005b83811015612a18578181015183820152602001612a00565b50506000910152565b60008151808452612a398160208601602086016129fd565b601f017fffffffffffffffffffffffffffffffffffffffffffffffffffffffffffffffe0169290920160200192915050565b602081526000610ecf6020830184612a21565b600060208284031215612a9057600080fd5b5035919050565b60008060408385031215612aaa57600080fd5b612ab383612973565b946020939093013593505050565b60008060408385031215612ad457600080fd5b82359150612ae460208401612973565b90509250929050565b600080600060608486031215612b0257600080fd5b612b0b84612973565b9250612b1960208501612973565b9150604084013590509250925092565b60008060408385031215612b3c57600080fd5b612b4583612973565b915060208301358015158114612b5a57600080fd5b809150509250929050565b7f4e487b7100000000000000000000000000000000000000000000000000000000600052604160045260246000fd5b60008060008060808587031215612baa57600080fd5b612bb385612973565b9350612bc160208601612973565b925060408501359150606085013567ffffffffffffffff80821115612be557600080fd5b818701915087601f830112612bf957600080fd5b813581811115612c0b57612c0b612b65565b604051601f82017fffffffffffffffffffffffffffffffffffffffffffffffffffffffffffffffe0908116603f01168101908382118183101715612c5157612c51612b65565b816040528281528a6020848701011115612c6a57600080fd5b82602086016020830137600060208483010152809550505050505092959194509250565b60008060408385031215612ca157600080fd5b612caa83612973565b9150612ae460208401612973565b600181811c90821680612ccc57607f821691505b602082108103612d05577f4e487b7100000000000000000000000000000000000000000000000000000000600052602260045260246000fd5b50919050565b7f4e487b7100000000000000000000000000000000000000000000000000000000600052601160045260246000fd5b60007fffffffffffffffffffffffffffffffffffffffffffffffffffffffffffffffff8203612d6b57612d6b612d0b565b5060010190565b7f4e487b7100000000000000000000000000000000000000000000000000000000600052603260045260246000fd5b60008351612db38184602088016129fd565b835190830190612dc78183602088016129fd565b01949350505050565b600073ffffffffffffffffffffffffffffffffffffffff808716835280861660208401525083604083015260806060830152612e0f6080830184612a21565b9695505050505050565b600060208284031215612e2b57600080fd5b8151610ecf816129b2565b8181038181111561087357610873612d0b565b8082018082111561087357610873612d0b565b7f4e487b7100000000000000000000000000000000000000000000000000000000600052603160045260246000fdfea26469706673582212208dc0f3d248451c9dbae12e3d60aca7f9e82f717176cea13a484f8ba87de219b864736f6c63430008110033",
    "linkReferences": {}
  },
  "methodIdentifiers": {
    "ETH_SACRIFICE()": "2240315c",
    "INSIDER_MINTS()": "21157246",
    "PUBLIC_MINTS()": "1bb85b4f",
    "approve(address,uint256)": "095ea7b3",
    "balanceOf(address)": "70a08231",
    "factory()": "c45a0155",
    "getApproved(uint256)": "081812fc",
    "grant(uint256,address)": "887d7c3e",
    "hasPermission(uint256,address)": "4cf15858",
    "id2lastOwnershipChange(uint256)": "b3c6fb9c",
    "id2permission(uint256,address)": "99976134",
    "insiderMints()": "279e4a63",
    "isApprovedForAll(address,address)": "e985e9c5",
    "isLiquidator(address)": "529a356f",
    "liquidate(uint256,address)": "5fae8b3d",
    "mintInsiderNft(address)": "0b56f8b6",
    "mintNft(address)": "e9c2e14b",
    "name()": "06fdde03",
    "owner()": "8da5cb5b",
    "ownerOf(uint256)": "6352211e",
    "publicMints()": "2336296a",
    "revoke(uint256,address)": "20d154da",
    "safeTransferFrom(address,address,uint256)": "42842e0e",
    "safeTransferFrom(address,address,uint256,bytes)": "b88d4fde",
    "setApprovalForAll(address,bool)": "a22cb465",
    "setFactory(address)": "5bb47808",
    "setLiquidator(address)": "01c76f81",
    "supportsInterface(bytes4)": "01ffc9a7",
    "symbol()": "95d89b41",
    "tokenByIndex(uint256)": "4f6ccce7",
    "tokenOfOwnerByIndex(address,uint256)": "2f745c59",
    "tokenURI(uint256)": "c87b56dd",
    "totalSupply()": "18160ddd",
    "transferFrom(address,address,uint256)": "23b872dd",
    "transferOwnership(address)": "f2fde38b"
  },
  "id": 39
}