{
  "abi": [
    {
      "inputs": [],
      "stateMutability": "nonpayable",
      "type": "constructor"
    },
    {
      "inputs": [],
      "name": "IncorrectEthSacrifice",
      "type": "error"
    },
    {
      "inputs": [],
      "name": "InsiderMintsExceeded",
      "type": "error"
    },
    {
      "inputs": [],
      "name": "NotLiquidator",
      "type": "error"
    },
    {
      "inputs": [],
      "name": "NotOwner",
      "type": "error"
    },
    {
      "inputs": [],
      "name": "PublicMintsExceeded",
      "type": "error"
    },
    {
      "anonymous": false,
      "inputs": [
        {
          "indexed": true,
          "internalType": "address",
          "name": "owner",
          "type": "address"
        },
        {
          "indexed": true,
          "internalType": "address",
          "name": "approved",
          "type": "address"
        },
        {
          "indexed": true,
          "internalType": "uint256",
          "name": "tokenId",
          "type": "uint256"
        }
      ],
      "name": "Approval",
      "type": "event"
    },
    {
      "anonymous": false,
      "inputs": [
        {
          "indexed": true,
          "internalType": "address",
          "name": "owner",
          "type": "address"
        },
        {
          "indexed": true,
          "internalType": "address",
          "name": "operator",
          "type": "address"
        },
        {
          "indexed": false,
          "internalType": "bool",
          "name": "approved",
          "type": "bool"
        }
      ],
      "name": "ApprovalForAll",
      "type": "event"
    },
    {
      "anonymous": false,
      "inputs": [
        {
          "indexed": true,
          "internalType": "uint256",
          "name": "id",
          "type": "uint256"
        },
        {
          "indexed": true,
          "internalType": "address",
          "name": "operator",
          "type": "address"
        }
      ],
      "name": "Grant",
      "type": "event"
    },
    {
      "anonymous": false,
      "inputs": [
        {
          "indexed": true,
          "internalType": "uint256",
          "name": "id",
          "type": "uint256"
        },
        {
          "indexed": true,
          "internalType": "address",
          "name": "to",
          "type": "address"
        }
      ],
      "name": "MintNft",
      "type": "event"
    },
    {
      "anonymous": false,
      "inputs": [
        {
          "indexed": true,
          "internalType": "address",
          "name": "user",
          "type": "address"
        },
        {
          "indexed": true,
          "internalType": "address",
          "name": "newOwner",
          "type": "address"
        }
      ],
      "name": "OwnershipTransferred",
      "type": "event"
    },
    {
      "anonymous": false,
      "inputs": [
        {
          "indexed": true,
          "internalType": "uint256",
          "name": "id",
          "type": "uint256"
        },
        {
          "indexed": true,
          "internalType": "address",
          "name": "operator",
          "type": "address"
        }
      ],
      "name": "Revoke",
      "type": "event"
    },
    {
      "anonymous": false,
      "inputs": [
        {
          "indexed": true,
          "internalType": "address",
          "name": "from",
          "type": "address"
        },
        {
          "indexed": true,
          "internalType": "address",
          "name": "to",
          "type": "address"
        },
        {
          "indexed": true,
          "internalType": "uint256",
          "name": "tokenId",
          "type": "uint256"
        }
      ],
      "name": "Transfer",
      "type": "event"
    },
    {
      "inputs": [],
      "name": "ETH_SACRIFICE",
      "outputs": [
        {
          "internalType": "uint256",
          "name": "",
          "type": "uint256"
        }
      ],
      "stateMutability": "view",
      "type": "function"
    },
    {
      "inputs": [],
      "name": "INSIDER_MINTS",
      "outputs": [
        {
          "internalType": "uint256",
          "name": "",
          "type": "uint256"
        }
      ],
      "stateMutability": "view",
      "type": "function"
    },
    {
      "inputs": [],
      "name": "PUBLIC_MINTS",
      "outputs": [
        {
          "internalType": "uint256",
          "name": "",
          "type": "uint256"
        }
      ],
      "stateMutability": "view",
      "type": "function"
    },
    {
      "inputs": [
        {
          "internalType": "address",
          "name": "to",
          "type": "address"
        },
        {
          "internalType": "uint256",
          "name": "tokenId",
          "type": "uint256"
        }
      ],
      "name": "approve",
      "outputs": [],
      "stateMutability": "nonpayable",
      "type": "function"
    },
    {
      "inputs": [
        {
          "internalType": "address",
          "name": "owner",
          "type": "address"
        }
      ],
      "name": "balanceOf",
      "outputs": [
        {
          "internalType": "uint256",
          "name": "",
          "type": "uint256"
        }
      ],
      "stateMutability": "view",
      "type": "function"
    },
    {
      "inputs": [
        {
          "internalType": "uint256",
          "name": "tokenId",
          "type": "uint256"
        }
      ],
      "name": "getApproved",
      "outputs": [
        {
          "internalType": "address",
          "name": "",
          "type": "address"
        }
      ],
      "stateMutability": "view",
      "type": "function"
    },
    {
      "inputs": [
        {
          "internalType": "uint256",
          "name": "id",
          "type": "uint256"
        },
        {
          "internalType": "address",
          "name": "operator",
          "type": "address"
        }
      ],
      "name": "grant",
      "outputs": [],
      "stateMutability": "nonpayable",
      "type": "function"
    },
    {
      "inputs": [
        {
          "internalType": "uint256",
          "name": "id",
          "type": "uint256"
        },
        {
          "internalType": "address",
          "name": "operator",
          "type": "address"
        }
      ],
      "name": "hasPermission",
      "outputs": [
        {
          "internalType": "bool",
          "name": "",
          "type": "bool"
        }
      ],
      "stateMutability": "view",
      "type": "function"
    },
    {
      "inputs": [
        {
          "internalType": "uint256",
          "name": "",
          "type": "uint256"
        }
      ],
      "name": "id2lastOwnershipChange",
      "outputs": [
        {
          "internalType": "uint256",
          "name": "",
          "type": "uint256"
        }
      ],
      "stateMutability": "view",
      "type": "function"
    },
    {
      "inputs": [
        {
          "internalType": "uint256",
          "name": "",
          "type": "uint256"
        },
        {
          "internalType": "address",
          "name": "",
          "type": "address"
        }
      ],
      "name": "id2permission",
      "outputs": [
        {
          "internalType": "bool",
          "name": "hasPermission",
          "type": "bool"
        },
        {
          "internalType": "uint248",
          "name": "lastUpdated",
          "type": "uint248"
        }
      ],
      "stateMutability": "view",
      "type": "function"
    },
    {
      "inputs": [],
      "name": "insiderMints",
      "outputs": [
        {
          "internalType": "uint256",
          "name": "",
          "type": "uint256"
        }
      ],
      "stateMutability": "view",
      "type": "function"
    },
    {
      "inputs": [
        {
          "internalType": "address",
          "name": "owner",
          "type": "address"
        },
        {
          "internalType": "address",
          "name": "operator",
          "type": "address"
        }
      ],
      "name": "isApprovedForAll",
      "outputs": [
        {
          "internalType": "bool",
          "name": "",
          "type": "bool"
        }
      ],
      "stateMutability": "view",
      "type": "function"
    },
    {
      "inputs": [
        {
          "internalType": "address",
          "name": "",
          "type": "address"
        }
      ],
      "name": "isLiquidator",
      "outputs": [
        {
          "internalType": "bool",
          "name": "",
          "type": "bool"
        }
      ],
      "stateMutability": "view",
      "type": "function"
    },
    {
      "inputs": [
        {
          "internalType": "uint256",
          "name": "id",
          "type": "uint256"
        },
        {
          "internalType": "address",
          "name": "to",
          "type": "address"
        }
      ],
      "name": "liquidate",
      "outputs": [],
      "stateMutability": "nonpayable",
      "type": "function"
    },
    {
      "inputs": [
        {
          "internalType": "address",
          "name": "to",
          "type": "address"
        }
      ],
      "name": "mintInsiderNft",
      "outputs": [
        {
          "internalType": "uint256",
          "name": "",
          "type": "uint256"
        }
      ],
      "stateMutability": "nonpayable",
      "type": "function"
    },
    {
      "inputs": [
        {
          "internalType": "address",
          "name": "to",
          "type": "address"
        }
      ],
      "name": "mintNft",
      "outputs": [
        {
          "internalType": "uint256",
          "name": "",
          "type": "uint256"
        }
      ],
      "stateMutability": "payable",
      "type": "function"
    },
    {
      "inputs": [],
      "name": "name",
      "outputs": [
        {
          "internalType": "string",
          "name": "",
          "type": "string"
        }
      ],
      "stateMutability": "view",
      "type": "function"
    },
    {
      "inputs": [],
      "name": "owner",
      "outputs": [
        {
          "internalType": "address",
          "name": "",
          "type": "address"
        }
      ],
      "stateMutability": "view",
      "type": "function"
    },
    {
      "inputs": [
        {
          "internalType": "uint256",
          "name": "tokenId",
          "type": "uint256"
        }
      ],
      "name": "ownerOf",
      "outputs": [
        {
          "internalType": "address",
          "name": "",
          "type": "address"
        }
      ],
      "stateMutability": "view",
      "type": "function"
    },
    {
      "inputs": [],
      "name": "publicMints",
      "outputs": [
        {
          "internalType": "uint256",
          "name": "",
          "type": "uint256"
        }
      ],
      "stateMutability": "view",
      "type": "function"
    },
    {
      "inputs": [
        {
          "internalType": "uint256",
          "name": "id",
          "type": "uint256"
        },
        {
          "internalType": "address",
          "name": "operator",
          "type": "address"
        }
      ],
      "name": "revoke",
      "outputs": [],
      "stateMutability": "nonpayable",
      "type": "function"
    },
    {
      "inputs": [
        {
          "internalType": "address",
          "name": "from",
          "type": "address"
        },
        {
          "internalType": "address",
          "name": "to",
          "type": "address"
        },
        {
          "internalType": "uint256",
          "name": "tokenId",
          "type": "uint256"
        }
      ],
      "name": "safeTransferFrom",
      "outputs": [],
      "stateMutability": "nonpayable",
      "type": "function"
    },
    {
      "inputs": [
        {
          "internalType": "address",
          "name": "from",
          "type": "address"
        },
        {
          "internalType": "address",
          "name": "to",
          "type": "address"
        },
        {
          "internalType": "uint256",
          "name": "tokenId",
          "type": "uint256"
        },
        {
          "internalType": "bytes",
          "name": "data",
          "type": "bytes"
        }
      ],
      "name": "safeTransferFrom",
      "outputs": [],
      "stateMutability": "nonpayable",
      "type": "function"
    },
    {
      "inputs": [
        {
          "internalType": "address",
          "name": "operator",
          "type": "address"
        },
        {
          "internalType": "bool",
          "name": "approved",
          "type": "bool"
        }
      ],
      "name": "setApprovalForAll",
      "outputs": [],
      "stateMutability": "nonpayable",
      "type": "function"
    },
    {
      "inputs": [
        {
          "internalType": "address",
          "name": "liquidator",
          "type": "address"
        }
      ],
      "name": "setLiquidator",
      "outputs": [],
      "stateMutability": "nonpayable",
      "type": "function"
    },
    {
      "inputs": [
        {
          "internalType": "bytes4",
          "name": "interfaceId",
          "type": "bytes4"
        }
      ],
      "name": "supportsInterface",
      "outputs": [
        {
          "internalType": "bool",
          "name": "",
          "type": "bool"
        }
      ],
      "stateMutability": "view",
      "type": "function"
    },
    {
      "inputs": [],
      "name": "symbol",
      "outputs": [
        {
          "internalType": "string",
          "name": "",
          "type": "string"
        }
      ],
      "stateMutability": "view",
      "type": "function"
    },
    {
      "inputs": [
        {
          "internalType": "uint256",
          "name": "index",
          "type": "uint256"
        }
      ],
      "name": "tokenByIndex",
      "outputs": [
        {
          "internalType": "uint256",
          "name": "",
          "type": "uint256"
        }
      ],
      "stateMutability": "view",
      "type": "function"
    },
    {
      "inputs": [
        {
          "internalType": "address",
          "name": "owner",
          "type": "address"
        },
        {
          "internalType": "uint256",
          "name": "index",
          "type": "uint256"
        }
      ],
      "name": "tokenOfOwnerByIndex",
      "outputs": [
        {
          "internalType": "uint256",
          "name": "",
          "type": "uint256"
        }
      ],
      "stateMutability": "view",
      "type": "function"
    },
    {
      "inputs": [
        {
          "internalType": "uint256",
          "name": "tokenId",
          "type": "uint256"
        }
      ],
      "name": "tokenURI",
      "outputs": [
        {
          "internalType": "string",
          "name": "",
          "type": "string"
        }
      ],
      "stateMutability": "view",
      "type": "function"
    },
    {
      "inputs": [],
      "name": "totalSupply",
      "outputs": [
        {
          "internalType": "uint256",
          "name": "",
          "type": "uint256"
        }
      ],
      "stateMutability": "view",
      "type": "function"
    },
    {
      "inputs": [
        {
          "internalType": "address",
          "name": "from",
          "type": "address"
        },
        {
          "internalType": "address",
          "name": "to",
          "type": "address"
        },
        {
          "internalType": "uint256",
          "name": "tokenId",
          "type": "uint256"
        }
      ],
      "name": "transferFrom",
      "outputs": [],
      "stateMutability": "nonpayable",
      "type": "function"
    },
    {
      "inputs": [
        {
          "internalType": "address",
          "name": "newOwner",
          "type": "address"
        }
      ],
      "name": "transferOwnership",
      "outputs": [],
      "stateMutability": "nonpayable",
      "type": "function"
    }
  ],
  "bytecode": {
    "object": "0x60806040523480156200001157600080fd5b503360405180604001604052806008815260200167111e58590813919560c21b815250604051806040016040528060048152602001631913919560e21b81525081600090816200006291906200016b565b5060016200007182826200016b565b5050600a80546001600160a01b0319166001600160a01b0384169081179091556040519091506000907f8be0079c531659141344cd1fd0a4f28419497f9722a3daafe3b4186f6b6457e0908290a35062000237565b634e487b7160e01b600052604160045260246000fd5b600181811c90821680620000f157607f821691505b6020821081036200011257634e487b7160e01b600052602260045260246000fd5b50919050565b601f8211156200016657600081815260208120601f850160051c81016020861015620001415750805b601f850160051c820191505b8181101562000162578281556001016200014d565b5050505b505050565b81516001600160401b03811115620001875762000187620000c6565b6200019f81620001988454620000dc565b8462000118565b602080601f831160018114620001d75760008415620001be5750858301515b600019600386901b1c1916600185901b17855562000162565b600085815260208120601f198616915b828110156200020857888601518255948401946001909101908401620001e7565b5085821015620002275787850151600019600388901b60f8161c191681555b5050505050600190811b01905550565b612d5680620002476000396000f3fe6080604052600436106101fe5760003560e01c80634cf158581161011d57806395d89b41116100b0578063b88d4fde1161007f578063e985e9c511610064578063e985e9c514610671578063e9c2e14b146106c7578063f2fde38b146106da57600080fd5b8063b88d4fde14610631578063c87b56dd1461065157600080fd5b806395d89b4114610535578063999761341461054a578063a22cb465146105e4578063b3c6fb9c1461060457600080fd5b80636352211e116100ec5780636352211e146104a857806370a08231146104c8578063887d7c3e146104e85780638da5cb5b1461050857600080fd5b80634cf15858146104185780634f6ccce714610438578063529a356f146104585780635fae8b3d1461048857600080fd5b806320d154da1161019557806323b872dd1161016457806323b872dd146103a2578063279e4a63146103c25780632f745c59146103d857806342842e0e146103f857600080fd5b806320d154da1461033a578063211572461461035a5780632240315c146103705780632336296a1461038c57600080fd5b8063095ea7b3116101d1578063095ea7b3146102c15780630b56f8b6146102e157806318160ddd1461030f5780631bb85b4f1461032457600080fd5b806301c76f811461020357806301ffc9a71461022557806306fdde031461025a578063081812fc1461027c575b600080fd5b34801561020f57600080fd5b5061022361021e36600461282c565b6106fa565b005b34801561023157600080fd5b50610245610240366004612875565b6107cf565b60405190151581526020015b60405180910390f35b34801561026657600080fd5b5061026f61082b565b6040516102519190612900565b34801561028857600080fd5b5061029c610297366004612913565b6108bd565b60405173ffffffffffffffffffffffffffffffffffffffff9091168152602001610251565b3480156102cd57600080fd5b506102236102dc36600461292c565b6108f1565b3480156102ed57600080fd5b506103016102fc36600461282c565b610a7d565b604051908152602001610251565b34801561031b57600080fd5b50600854610301565b34801561033057600080fd5b506103016106a481565b34801561034657600080fd5b50610223610355366004612956565b610b5e565b34801561036657600080fd5b5061030161012c81565b34801561037c57600080fd5b5061030167016345785d8a000081565b34801561039857600080fd5b50610301600c5481565b3480156103ae57600080fd5b506102236103bd366004612982565b610c17565b3480156103ce57600080fd5b50610301600b5481565b3480156103e457600080fd5b506103016103f336600461292c565b610cb8565b34801561040457600080fd5b50610223610413366004612982565b610d87565b34801561042457600080fd5b50610245610433366004612956565b610da2565b34801561044457600080fd5b50610301610453366004612913565b610e83565b34801561046457600080fd5b5061024561047336600461282c565b600d6020526000908152604090205460ff1681565b34801561049457600080fd5b506102236104a3366004612956565b610f41565b3480156104b457600080fd5b5061029c6104c3366004612913565b610fa1565b3480156104d457600080fd5b506103016104e336600461282c565b61102d565b3480156104f457600080fd5b50610223610503366004612956565b6110fb565b34801561051457600080fd5b50600a5461029c9073ffffffffffffffffffffffffffffffffffffffff1681565b34801561054157600080fd5b5061026f6111fd565b34801561055657600080fd5b506105ad610565366004612956565b600e60209081526000928352604080842090915290825290205460ff81169061010090047effffffffffffffffffffffffffffffffffffffffffffffffffffffffffffff1682565b6040805192151583527effffffffffffffffffffffffffffffffffffffffffffffffffffffffffffff909116602083015201610251565b3480156105f057600080fd5b506102236105ff3660046129be565b61120c565b34801561061057600080fd5b5061030161061f366004612913565b600f6020526000908152604090205481565b34801561063d57600080fd5b5061022361064c366004612a29565b611217565b34801561065d57600080fd5b5061026f61066c366004612913565b6112bf565b34801561067d57600080fd5b5061024561068c366004612b23565b73ffffffffffffffffffffffffffffffffffffffff918216600090815260056020908152604080832093909416825291909152205460ff1690565b6103016106d536600461282c565b611332565b3480156106e657600080fd5b506102236106f536600461282c565b6113cf565b600a5473ffffffffffffffffffffffffffffffffffffffff163314610780576040517f08c379a000000000000000000000000000000000000000000000000000000000815260206004820152600c60248201527f554e415554484f52495a4544000000000000000000000000000000000000000060448201526064015b60405180910390fd5b73ffffffffffffffffffffffffffffffffffffffff166000908152600d6020526040902080547fffffffffffffffffffffffffffffffffffffffffffffffffffffffffffffff00166001179055565b60007fffffffff0000000000000000000000000000000000000000000000000000000082167f780e9d630000000000000000000000000000000000000000000000000000000014806108255750610825826114c1565b92915050565b60606000805461083a90612b4d565b80601f016020809104026020016040519081016040528092919081815260200182805461086690612b4d565b80156108b35780601f10610888576101008083540402835291602001916108b3565b820191906000526020600020905b81548152906001019060200180831161089657829003601f168201915b5050505050905090565b60006108c8826115a4565b5060009081526004602052604090205473ffffffffffffffffffffffffffffffffffffffff1690565b60006108fc82610fa1565b90508073ffffffffffffffffffffffffffffffffffffffff168373ffffffffffffffffffffffffffffffffffffffff16036109b9576040517f08c379a000000000000000000000000000000000000000000000000000000000815260206004820152602160248201527f4552433732313a20617070726f76616c20746f2063757272656e74206f776e6560448201527f72000000000000000000000000000000000000000000000000000000000000006064820152608401610777565b3373ffffffffffffffffffffffffffffffffffffffff821614806109e257506109e2813361068c565b610a6e576040517f08c379a000000000000000000000000000000000000000000000000000000000815260206004820152603d60248201527f4552433732313a20617070726f76652063616c6c6572206973206e6f7420746f60448201527f6b656e206f776e6572206f7220617070726f76656420666f7220616c6c0000006064820152608401610777565b610a788383611632565b505050565b600a5460009073ffffffffffffffffffffffffffffffffffffffff163314610b01576040517f08c379a000000000000000000000000000000000000000000000000000000000815260206004820152600c60248201527f554e415554484f52495a454400000000000000000000000000000000000000006044820152606401610777565b61012c600b60008154610b1390612bcf565b91829055501115610b50576040517f9652890b00000000000000000000000000000000000000000000000000000000815260040160405180910390fd5b610825826116d2565b919050565b8133610b6982610fa1565b73ffffffffffffffffffffffffffffffffffffffff1614610bb6576040517f30cd747100000000000000000000000000000000000000000000000000000000815260040160405180910390fd5b6000838152600e6020908152604080832073ffffffffffffffffffffffffffffffffffffffff8616808552925280832083905551909185917fd5d64031e0f55cf42bc3b7d0462f8404a4d63f7ccf84be9510cd6a5300552e429190a3505050565b610c213382611733565b610cad576040517f08c379a000000000000000000000000000000000000000000000000000000000815260206004820152602d60248201527f4552433732313a2063616c6c6572206973206e6f7420746f6b656e206f776e6560448201527f72206f7220617070726f766564000000000000000000000000000000000000006064820152608401610777565b610a788383836117f3565b6000610cc38361102d565b8210610d51576040517f08c379a000000000000000000000000000000000000000000000000000000000815260206004820152602b60248201527f455243373231456e756d657261626c653a206f776e657220696e646578206f7560448201527f74206f6620626f756e64730000000000000000000000000000000000000000006064820152608401610777565b5073ffffffffffffffffffffffffffffffffffffffff919091166000908152600660209081526040808320938352929052205490565b610a7883838360405180602001604052806000815250611217565b60008173ffffffffffffffffffffffffffffffffffffffff16610dc484610fa1565b73ffffffffffffffffffffffffffffffffffffffff161480610e7c57506000838152600e6020908152604080832073ffffffffffffffffffffffffffffffffffffffff8616845290915290205460ff168015610e7c57506000838152600f6020908152604080832054600e835281842073ffffffffffffffffffffffffffffffffffffffff871685529092529091205461010090047effffffffffffffffffffffffffffffffffffffffffffffffffffffffffffff16115b9392505050565b6000610e8e60085490565b8210610f1c576040517f08c379a000000000000000000000000000000000000000000000000000000000815260206004820152602c60248201527f455243373231456e756d657261626c653a20676c6f62616c20696e646578206f60448201527f7574206f6620626f756e647300000000000000000000000000000000000000006064820152608401610777565b60088281548110610f2f57610f2f612c07565b90600052602060002001549050919050565b336000908152600d602052604090205460ff16610f8a576040517fd891a1b700000000000000000000000000000000000000000000000000000000815260040160405180910390fd5b610f9d610f9683610fa1565b82846117f3565b5050565b60008181526002602052604081205473ffffffffffffffffffffffffffffffffffffffff1680610825576040517f08c379a000000000000000000000000000000000000000000000000000000000815260206004820152601860248201527f4552433732313a20696e76616c696420746f6b656e20494400000000000000006044820152606401610777565b600073ffffffffffffffffffffffffffffffffffffffff82166110d2576040517f08c379a000000000000000000000000000000000000000000000000000000000815260206004820152602960248201527f4552433732313a2061646472657373207a65726f206973206e6f74206120766160448201527f6c6964206f776e657200000000000000000000000000000000000000000000006064820152608401610777565b5073ffffffffffffffffffffffffffffffffffffffff1660009081526003602052604090205490565b813361110682610fa1565b73ffffffffffffffffffffffffffffffffffffffff1614611153576040517f30cd747100000000000000000000000000000000000000000000000000000000815260040160405180910390fd5b604080518082018252600181527effffffffffffffffffffffffffffffffffffffffffffffffffffffffffffff43811660208084019182526000888152600e825285812073ffffffffffffffffffffffffffffffffffffffff89168083529252858120945192519093166101000291151560ff16919091179092559151909185917fae114a60e55fc87cd2337e3dd95e4e5d97b626c4025f203a9c2c1b3b610032e19190a3505050565b60606001805461083a90612b4d565b610f9d338383611afb565b6112213383611733565b6112ad576040517f08c379a000000000000000000000000000000000000000000000000000000000815260206004820152602d60248201527f4552433732313a2063616c6c6572206973206e6f7420746f6b656e206f776e6560448201527f72206f7220617070726f766564000000000000000000000000000000000000006064820152608401610777565b6112b984848484611c28565b50505050565b60606112ca826115a4565b60006112e160408051602081019091526000815290565b905060008151116113015760405180602001604052806000815250610e7c565b8061130b84611ccb565b60405160200161131c929190612c36565b6040516020818303038152906040529392505050565b60006106a4600c6000815461134690612bcf565b91829055501115611383576040517ff7e5317900000000000000000000000000000000000000000000000000000000815260040160405180910390fd5b67016345785d8a000034146113c4576040517f31b5f2ab00000000000000000000000000000000000000000000000000000000815260040160405180910390fd5b610b50600034611d89565b600a5473ffffffffffffffffffffffffffffffffffffffff163314611450576040517f08c379a000000000000000000000000000000000000000000000000000000000815260206004820152600c60248201527f554e415554484f52495a454400000000000000000000000000000000000000006044820152606401610777565b600a80547fffffffffffffffffffffffff00000000000000000000000000000000000000001673ffffffffffffffffffffffffffffffffffffffff831690811790915560405133907f8be0079c531659141344cd1fd0a4f28419497f9722a3daafe3b4186f6b6457e090600090a350565b60007fffffffff0000000000000000000000000000000000000000000000000000000082167f80ac58cd00000000000000000000000000000000000000000000000000000000148061155457507fffffffff0000000000000000000000000000000000000000000000000000000082167f5b5e139f00000000000000000000000000000000000000000000000000000000145b8061082557507f01ffc9a7000000000000000000000000000000000000000000000000000000007fffffffff00000000000000000000000000000000000000000000000000000000831614610825565b60008181526002602052604090205473ffffffffffffffffffffffffffffffffffffffff1661162f576040517f08c379a000000000000000000000000000000000000000000000000000000000815260206004820152601860248201527f4552433732313a20696e76616c696420746f6b656e20494400000000000000006044820152606401610777565b50565b600081815260046020526040902080547fffffffffffffffffffffffff00000000000000000000000000000000000000001673ffffffffffffffffffffffffffffffffffffffff8416908117909155819061168c82610fa1565b73ffffffffffffffffffffffffffffffffffffffff167f8c5be1e5ebec7d5bd14f71427d1e84f3dd0314c0f7b2291e5b200ac8c7c3b92560405160405180910390a45050565b6000806116de60085490565b90506116ea8382611dfe565b60405173ffffffffffffffffffffffffffffffffffffffff84169082907f97e1dc560b408f366de12df1bd5ca8ef322d846959ccec261e46f96562d9cf0090600090a392915050565b60008061173f83610fa1565b90508073ffffffffffffffffffffffffffffffffffffffff168473ffffffffffffffffffffffffffffffffffffffff1614806117ad575073ffffffffffffffffffffffffffffffffffffffff80821660009081526005602090815260408083209388168352929052205460ff165b806117eb57508373ffffffffffffffffffffffffffffffffffffffff166117d3846108bd565b73ffffffffffffffffffffffffffffffffffffffff16145b949350505050565b8273ffffffffffffffffffffffffffffffffffffffff1661181382610fa1565b73ffffffffffffffffffffffffffffffffffffffff16146118b6576040517f08c379a000000000000000000000000000000000000000000000000000000000815260206004820152602560248201527f4552433732313a207472616e736665722066726f6d20696e636f72726563742060448201527f6f776e65720000000000000000000000000000000000000000000000000000006064820152608401610777565b73ffffffffffffffffffffffffffffffffffffffff8216611958576040517f08c379a0000000000000000000000000000000000000000000000000000000008152602060048201526024808201527f4552433732313a207472616e7366657220746f20746865207a65726f2061646460448201527f72657373000000000000000000000000000000000000000000000000000000006064820152608401610777565b6119658383836001611e18565b8273ffffffffffffffffffffffffffffffffffffffff1661198582610fa1565b73ffffffffffffffffffffffffffffffffffffffff1614611a28576040517f08c379a000000000000000000000000000000000000000000000000000000000815260206004820152602560248201527f4552433732313a207472616e736665722066726f6d20696e636f72726563742060448201527f6f776e65720000000000000000000000000000000000000000000000000000006064820152608401610777565b600081815260046020908152604080832080547fffffffffffffffffffffffff000000000000000000000000000000000000000090811690915573ffffffffffffffffffffffffffffffffffffffff8781168086526003855283862080547fffffffffffffffffffffffffffffffffffffffffffffffffffffffffffffffff01905590871680865283862080546001019055868652600290945282852080549092168417909155905184937fddf252ad1be2c89b69c2b068fc378daa952ba7f163c4a11628f55a4df523b3ef91a4505050565b8173ffffffffffffffffffffffffffffffffffffffff168373ffffffffffffffffffffffffffffffffffffffff1603611b90576040517f08c379a000000000000000000000000000000000000000000000000000000000815260206004820152601960248201527f4552433732313a20617070726f766520746f2063616c6c6572000000000000006044820152606401610777565b73ffffffffffffffffffffffffffffffffffffffff83811660008181526005602090815260408083209487168084529482529182902080547fffffffffffffffffffffffffffffffffffffffffffffffffffffffffffffff001686151590811790915591519182527f17307eab39ab6107e8899845ad3d59bd9653f200f220920489ca2b5937696c31910160405180910390a3505050565b611c338484846117f3565b611c3f84848484611e3a565b6112b9576040517f08c379a000000000000000000000000000000000000000000000000000000000815260206004820152603260248201527f4552433732313a207472616e7366657220746f206e6f6e20455243373231526560448201527f63656976657220696d706c656d656e74657200000000000000000000000000006064820152608401610777565b60606000611cd88361202d565b600101905060008167ffffffffffffffff811115611cf857611cf86129fa565b6040519080825280601f01601f191660200182016040528015611d22576020820181803683370190505b5090508181016020015b7fffffffffffffffffffffffffffffffffffffffffffffffffffffffffffffffff017f3031323334353637383961626364656600000000000000000000000000000000600a86061a8153600a8504945084611d2c57509392505050565b600080600080600085875af1905080610a78576040517f08c379a000000000000000000000000000000000000000000000000000000000815260206004820152601360248201527f4554485f5452414e534645525f4641494c4544000000000000000000000000006044820152606401610777565b610f9d82826040518060200160405280600081525061210f565b611e24848484846121b2565b506000908152600f602052604090204390555050565b600073ffffffffffffffffffffffffffffffffffffffff84163b15612022576040517f150b7a0200000000000000000000000000000000000000000000000000000000815273ffffffffffffffffffffffffffffffffffffffff85169063150b7a0290611eb1903390899088908890600401612c65565b6020604051808303816000875af1925050508015611f0a575060408051601f3d9081017fffffffffffffffffffffffffffffffffffffffffffffffffffffffffffffffe0168201909252611f0791810190612cae565b60015b611fd7573d808015611f38576040519150601f19603f3d011682016040523d82523d6000602084013e611f3d565b606091505b508051600003611fcf576040517f08c379a000000000000000000000000000000000000000000000000000000000815260206004820152603260248201527f4552433732313a207472616e7366657220746f206e6f6e20455243373231526560448201527f63656976657220696d706c656d656e74657200000000000000000000000000006064820152608401610777565b805181602001fd5b7fffffffff00000000000000000000000000000000000000000000000000000000167f150b7a02000000000000000000000000000000000000000000000000000000001490506117eb565b506001949350505050565b6000807a184f03e93ff9f4daa797ed6e38ed64bf6a1f0100000000000000008310612076577a184f03e93ff9f4daa797ed6e38ed64bf6a1f010000000000000000830492506040015b6d04ee2d6d415b85acef810000000083106120a2576d04ee2d6d415b85acef8100000000830492506020015b662386f26fc1000083106120c057662386f26fc10000830492506010015b6305f5e10083106120d8576305f5e100830492506008015b61271083106120ec57612710830492506004015b606483106120fe576064830492506002015b600a83106108255760010192915050565b6121198383612362565b6121266000848484611e3a565b610a78576040517f08c379a000000000000000000000000000000000000000000000000000000000815260206004820152603260248201527f4552433732313a207472616e7366657220746f206e6f6e20455243373231526560448201527f63656976657220696d706c656d656e74657200000000000000000000000000006064820152608401610777565b6121be84848484612595565b600181111561224f576040517f08c379a000000000000000000000000000000000000000000000000000000000815260206004820152603560248201527f455243373231456e756d657261626c653a20636f6e736563757469766520747260448201527f616e7366657273206e6f7420737570706f7274656400000000000000000000006064820152608401610777565b8173ffffffffffffffffffffffffffffffffffffffff85166122b8576122b381600880546000838152600960205260408120829055600182018355919091527ff3f7a9fe364faab93b216da50a3214154f22a0a2b415b23a84c8169e8b636ee30155565b6122f5565b8373ffffffffffffffffffffffffffffffffffffffff168573ffffffffffffffffffffffffffffffffffffffff16146122f5576122f58582612651565b73ffffffffffffffffffffffffffffffffffffffff841661231e5761231981612708565b61235b565b8473ffffffffffffffffffffffffffffffffffffffff168473ffffffffffffffffffffffffffffffffffffffff161461235b5761235b84826127b7565b5050505050565b73ffffffffffffffffffffffffffffffffffffffff82166123df576040517f08c379a000000000000000000000000000000000000000000000000000000000815260206004820181905260248201527f4552433732313a206d696e7420746f20746865207a65726f20616464726573736044820152606401610777565b60008181526002602052604090205473ffffffffffffffffffffffffffffffffffffffff161561246b576040517f08c379a000000000000000000000000000000000000000000000000000000000815260206004820152601c60248201527f4552433732313a20746f6b656e20616c7265616479206d696e746564000000006044820152606401610777565b612479600083836001611e18565b60008181526002602052604090205473ffffffffffffffffffffffffffffffffffffffff1615612505576040517f08c379a000000000000000000000000000000000000000000000000000000000815260206004820152601c60248201527f4552433732313a20746f6b656e20616c7265616479206d696e746564000000006044820152606401610777565b73ffffffffffffffffffffffffffffffffffffffff8216600081815260036020908152604080832080546001019055848352600290915280822080547fffffffffffffffffffffffff0000000000000000000000000000000000000000168417905551839291907fddf252ad1be2c89b69c2b068fc378daa952ba7f163c4a11628f55a4df523b3ef908290a45050565b60018111156112b95773ffffffffffffffffffffffffffffffffffffffff8416156125f55773ffffffffffffffffffffffffffffffffffffffff8416600090815260036020526040812080548392906125ef908490612ccb565b90915550505b73ffffffffffffffffffffffffffffffffffffffff8316156112b95773ffffffffffffffffffffffffffffffffffffffff831660009081526003602052604081208054839290612646908490612cde565b909155505050505050565b6000600161265e8461102d565b6126689190612ccb565b6000838152600760205260409020549091508082146126c85773ffffffffffffffffffffffffffffffffffffffff841660009081526006602090815260408083208584528252808320548484528184208190558352600790915290208190555b50600091825260076020908152604080842084905573ffffffffffffffffffffffffffffffffffffffff9094168352600681528383209183525290812055565b60085460009061271a90600190612ccb565b6000838152600960205260408120546008805493945090928490811061274257612742612c07565b90600052602060002001549050806008838154811061276357612763612c07565b600091825260208083209091019290925582815260099091526040808220849055858252812055600880548061279b5761279b612cf1565b6001900381819060005260206000200160009055905550505050565b60006127c28361102d565b73ffffffffffffffffffffffffffffffffffffffff9093166000908152600660209081526040808320868452825280832085905593825260079052919091209190915550565b803573ffffffffffffffffffffffffffffffffffffffff81168114610b5957600080fd5b60006020828403121561283e57600080fd5b610e7c82612808565b7fffffffff000000000000000000000000000000000000000000000000000000008116811461162f57600080fd5b60006020828403121561288757600080fd5b8135610e7c81612847565b60005b838110156128ad578181015183820152602001612895565b50506000910152565b600081518084526128ce816020860160208601612892565b601f017fffffffffffffffffffffffffffffffffffffffffffffffffffffffffffffffe0169290920160200192915050565b602081526000610e7c60208301846128b6565b60006020828403121561292557600080fd5b5035919050565b6000806040838503121561293f57600080fd5b61294883612808565b946020939093013593505050565b6000806040838503121561296957600080fd5b8235915061297960208401612808565b90509250929050565b60008060006060848603121561299757600080fd5b6129a084612808565b92506129ae60208501612808565b9150604084013590509250925092565b600080604083850312156129d157600080fd5b6129da83612808565b9150602083013580151581146129ef57600080fd5b809150509250929050565b7f4e487b7100000000000000000000000000000000000000000000000000000000600052604160045260246000fd5b60008060008060808587031215612a3f57600080fd5b612a4885612808565b9350612a5660208601612808565b925060408501359150606085013567ffffffffffffffff80821115612a7a57600080fd5b818701915087601f830112612a8e57600080fd5b813581811115612aa057612aa06129fa565b604051601f82017fffffffffffffffffffffffffffffffffffffffffffffffffffffffffffffffe0908116603f01168101908382118183101715612ae657612ae66129fa565b816040528281528a6020848701011115612aff57600080fd5b82602086016020830137600060208483010152809550505050505092959194509250565b60008060408385031215612b3657600080fd5b612b3f83612808565b915061297960208401612808565b600181811c90821680612b6157607f821691505b602082108103612b9a577f4e487b7100000000000000000000000000000000000000000000000000000000600052602260045260246000fd5b50919050565b7f4e487b7100000000000000000000000000000000000000000000000000000000600052601160045260246000fd5b60007fffffffffffffffffffffffffffffffffffffffffffffffffffffffffffffffff8203612c0057612c00612ba0565b5060010190565b7f4e487b7100000000000000000000000000000000000000000000000000000000600052603260045260246000fd5b60008351612c48818460208801612892565b835190830190612c5c818360208801612892565b01949350505050565b600073ffffffffffffffffffffffffffffffffffffffff808716835280861660208401525083604083015260806060830152612ca460808301846128b6565b9695505050505050565b600060208284031215612cc057600080fd5b8151610e7c81612847565b8181038181111561082557610825612ba0565b8082018082111561082557610825612ba0565b7f4e487b7100000000000000000000000000000000000000000000000000000000600052603160045260246000fdfea2646970667358221220c9e423bc8687eacffb6f69143bb58f0c3de04c9cd1a35f15c7b774e7bf3efe2564736f6c63430008110033",
    "linkReferences": {}
  },
  "methodIdentifiers": {
    "ETH_SACRIFICE()": "2240315c",
    "INSIDER_MINTS()": "21157246",
    "PUBLIC_MINTS()": "1bb85b4f",
    "approve(address,uint256)": "095ea7b3",
    "balanceOf(address)": "70a08231",
    "getApproved(uint256)": "081812fc",
    "grant(uint256,address)": "887d7c3e",
    "hasPermission(uint256,address)": "4cf15858",
    "id2lastOwnershipChange(uint256)": "b3c6fb9c",
    "id2permission(uint256,address)": "99976134",
    "insiderMints()": "279e4a63",
    "isApprovedForAll(address,address)": "e985e9c5",
    "isLiquidator(address)": "529a356f",
    "liquidate(uint256,address)": "5fae8b3d",
    "mintInsiderNft(address)": "0b56f8b6",
    "mintNft(address)": "e9c2e14b",
    "name()": "06fdde03",
    "owner()": "8da5cb5b",
    "ownerOf(uint256)": "6352211e",
    "publicMints()": "2336296a",
    "revoke(uint256,address)": "20d154da",
    "safeTransferFrom(address,address,uint256)": "42842e0e",
    "safeTransferFrom(address,address,uint256,bytes)": "b88d4fde",
    "setApprovalForAll(address,bool)": "a22cb465",
    "setLiquidator(address)": "01c76f81",
    "supportsInterface(bytes4)": "01ffc9a7",
    "symbol()": "95d89b41",
    "tokenByIndex(uint256)": "4f6ccce7",
    "tokenOfOwnerByIndex(address,uint256)": "2f745c59",
    "tokenURI(uint256)": "c87b56dd",
    "totalSupply()": "18160ddd",
    "transferFrom(address,address,uint256)": "23b872dd",
    "transferOwnership(address)": "f2fde38b"
  },
  "id": 40
}