{
  "abi": [
    {
      "inputs": [
        {
          "internalType": "address",
          "name": "_dNft",
          "type": "address"
        }
      ],
      "stateMutability": "nonpayable",
      "type": "constructor"
    },
    {
      "anonymous": false,
      "inputs": [
        {
          "indexed": false,
          "internalType": "address",
          "name": "dNft",
          "type": "address"
        },
        {
          "indexed": false,
          "internalType": "address",
          "name": "dyad",
          "type": "address"
        }
      ],
      "name": "Deployed",
      "type": "event"
    },
    {
      "inputs": [],
      "name": "dNft",
      "outputs": [
        {
          "internalType": "contract DNft",
          "name": "",
          "type": "address"
        }
      ],
      "stateMutability": "view",
      "type": "function"
    },
    {
      "inputs": [
        {
          "internalType": "address",
          "name": "_collateral",
          "type": "address"
        },
        {
          "internalType": "address",
          "name": "_oracle",
          "type": "address"
        },
        {
          "internalType": "string",
          "name": "_flavor",
          "type": "string"
        }
      ],
      "name": "deploy",
      "outputs": [
        {
          "internalType": "address",
          "name": "",
          "type": "address"
        },
        {
          "internalType": "address",
          "name": "",
          "type": "address"
        }
      ],
      "stateMutability": "nonpayable",
      "type": "function"
    },
    {
      "inputs": [
        {
          "internalType": "address",
          "name": "",
          "type": "address"
        },
        {
          "internalType": "address",
          "name": "",
          "type": "address"
        }
      ],
      "name": "deployed",
      "outputs": [
        {
          "internalType": "bool",
          "name": "",
          "type": "bool"
        }
      ],
      "stateMutability": "view",
      "type": "function"
    }
  ],
  "bytecode": {
    "object": "0x608060405234801561001057600080fd5b5060405161303938038061303983398101604081905261002f91610054565b600180546001600160a01b0319166001600160a01b0392909216919091179055610084565b60006020828403121561006657600080fd5b81516001600160a01b038116811461007d57600080fd5b9392505050565b612fa6806100936000396000f3fe60806040523480156200001157600080fd5b5060043610620000465760003560e01c80630f5eea91146200004b578063197efba214620000965780632e7f138a14620000d5575b600080fd5b6001546200006c9073ffffffffffffffffffffffffffffffffffffffff1681565b60405173ffffffffffffffffffffffffffffffffffffffff90911681526020015b60405180910390f35b620000c4620000a736600462000498565b600060208181529281526040808220909352908152205460ff1681565b60405190151581526020016200008d565b620000ec620000e6366004620004ff565b6200011a565b6040805173ffffffffffffffffffffffffffffffffffffffff9384168152929091166020830152016200008d565b73ffffffffffffffffffffffffffffffffffffffff808416600090815260208181526040808320938616835292905290812054819060ff1615801562000191575073ffffffffffffffffffffffffffffffffffffffff8085166000908152602081815260408083209389168352929052205460ff16155b6200019b57600080fd5b600083604051602001620001b0919062000623565b60405160208183030381529060405284604051602001620001d2919062000666565b604051602081830303815290604052604051620001ef9062000452565b620001fc929190620006f9565b604051809103906000f08015801562000219573d6000803e3d6000fd5b5090506000600160009054906101000a900473ffffffffffffffffffffffffffffffffffffffff16828833604051620002529062000460565b73ffffffffffffffffffffffffffffffffffffffff9485168152928416602084015290831660408301529091166060820152608001604051809103906000f080158015620002a4573d6000803e3d6000fd5b506040517ff2fde38b00000000000000000000000000000000000000000000000000000000815273ffffffffffffffffffffffffffffffffffffffff80831660048301529192509083169063f2fde38b90602401600060405180830381600087803b1580156200031357600080fd5b505af115801562000328573d6000803e3d6000fd5b50506001546040517f01c76f8100000000000000000000000000000000000000000000000000000000815273ffffffffffffffffffffffffffffffffffffffff858116600483015290911692506301c76f819150602401600060405180830381600087803b1580156200039a57600080fd5b505af1158015620003af573d6000803e3d6000fd5b5050505073ffffffffffffffffffffffffffffffffffffffff8781166000908152602081815260408083208a8516845282529182902080547fffffffffffffffffffffffffffffffffffffffffffffffffffffffffffffff0016600117905581518484168152928516908301527f09e48df7857bd0c1e0d31bb8a85d42cf1874817895f171c917f6ee2cea73ec20910160405180910390a1969095509350505050565b6114e5806200072c83390190565b6113608062001c1183390190565b803573ffffffffffffffffffffffffffffffffffffffff811681146200049357600080fd5b919050565b60008060408385031215620004ac57600080fd5b620004b7836200046e565b9150620004c7602084016200046e565b90509250929050565b7f4e487b7100000000000000000000000000000000000000000000000000000000600052604160045260246000fd5b6000806000606084860312156200051557600080fd5b62000520846200046e565b925062000530602085016200046e565b9150604084013567ffffffffffffffff808211156200054e57600080fd5b818601915086601f8301126200056357600080fd5b813581811115620005785762000578620004d0565b604051601f82017fffffffffffffffffffffffffffffffffffffffffffffffffffffffffffffffe0908116603f01168101908382118183101715620005c157620005c1620004d0565b81604052828152896020848701011115620005db57600080fd5b8260208601602083013760006020848301015280955050505050509250925092565b60005b838110156200061a57818101518382015260200162000600565b50506000910152565b6000825162000637818460208701620005fd565b7f445941442d000000000000000000000000000000000000000000000000000000920191825250600501919050565b7f6400000000000000000000000000000000000000000000000000000000000000815260008251620006a0816001850160208701620005fd565b9190910160010192915050565b60008151808452620006c7816020860160208601620005fd565b601f017fffffffffffffffffffffffffffffffffffffffffffffffffffffffffffffffe0169290920160200192915050565b6040815260006200070e6040830185620006ad565b8281036020840152620007228185620006ad565b9594505050505056fe60e06040523480156200001157600080fd5b50604051620014e5380380620014e5833981016040819052620000349162000227565b3382826012600062000047848262000320565b50600162000056838262000320565b5060ff81166080524660a0526200006c620000c6565b60c0525050600680546001600160a01b0319166001600160a01b0384169081179091556040519091506000907f8be0079c531659141344cd1fd0a4f28419497f9722a3daafe3b4186f6b6457e0908290a35050506200046a565b60007f8b73c3c69bb8fe3d512ecc4cf759cc79239f7b179b0ffacaa9a75d522b39400f6000604051620000fa9190620003ec565b6040805191829003822060208301939093528101919091527fc89efdaa54c0f20c7adf612882df0950f5a951637e0307cdcb4c672f298b8bc660608201524660808201523060a082015260c00160405160208183030381529060405280519060200120905090565b634e487b7160e01b600052604160045260246000fd5b600082601f8301126200018a57600080fd5b81516001600160401b0380821115620001a757620001a762000162565b604051601f8301601f19908116603f01168101908282118183101715620001d257620001d262000162565b81604052838152602092508683858801011115620001ef57600080fd5b600091505b83821015620002135785820183015181830184015290820190620001f4565b600093810190920192909252949350505050565b600080604083850312156200023b57600080fd5b82516001600160401b03808211156200025357600080fd5b620002618683870162000178565b935060208501519150808211156200027857600080fd5b50620002878582860162000178565b9150509250929050565b600181811c90821680620002a657607f821691505b602082108103620002c757634e487b7160e01b600052602260045260246000fd5b50919050565b601f8211156200031b57600081815260208120601f850160051c81016020861015620002f65750805b601f850160051c820191505b81811015620003175782815560010162000302565b5050505b505050565b81516001600160401b038111156200033c576200033c62000162565b62000354816200034d845462000291565b84620002cd565b602080601f8311600181146200038c5760008415620003735750858301515b600019600386901b1c1916600185901b17855562000317565b600085815260208120601f198616915b82811015620003bd578886015182559484019460019091019084016200039c565b5085821015620003dc5787850151600019600388901b60f8161c191681555b5050505050600190811b01905550565b6000808354620003fc8162000291565b600182811680156200041757600181146200042d576200045e565b60ff19841687528215158302870194506200045e565b8760005260208060002060005b85811015620004555781548a8201529084019082016200043a565b50505082870194505b50929695505050505050565b60805160a05160c05161104b6200049a600039600061054f0152600061051a01526000610175015261104b6000f3fe608060405234801561001057600080fd5b50600436106101005760003560e01c80637ecebe0011610097578063a9059cbb11610066578063a9059cbb14610266578063d505accf14610279578063dd62ed3e1461028c578063f2fde38b146102b757600080fd5b80637ecebe00146101e65780638da5cb5b1461020657806395d89b411461024b5780639dc29fac1461025357600080fd5b8063313ce567116100d3578063313ce567146101705780633644e515146101a957806340c10f19146101b157806370a08231146101c657600080fd5b806306fdde0314610105578063095ea7b31461012357806318160ddd1461014657806323b872dd1461015d575b600080fd5b61010d6102ca565b60405161011a9190610cd4565b60405180910390f35b610136610131366004610d69565b610358565b604051901515815260200161011a565b61014f60025481565b60405190815260200161011a565b61013661016b366004610d93565b6103d2565b6101977f000000000000000000000000000000000000000000000000000000000000000081565b60405160ff909116815260200161011a565b61014f610516565b6101c46101bf366004610d69565b610571565b005b61014f6101d4366004610dcf565b60036020526000908152604090205481565b61014f6101f4366004610dcf565b60056020526000908152604090205481565b6006546102269073ffffffffffffffffffffffffffffffffffffffff1681565b60405173ffffffffffffffffffffffffffffffffffffffff909116815260200161011a565b61010d610605565b6101c4610261366004610d69565b610612565b610136610274366004610d69565b61069d565b6101c4610287366004610df1565b610722565b61014f61029a366004610e64565b600460209081526000928352604080842090915290825290205481565b6101c46102c5366004610dcf565b610a41565b600080546102d790610e97565b80601f016020809104026020016040519081016040528092919081815260200182805461030390610e97565b80156103505780601f1061032557610100808354040283529160200191610350565b820191906000526020600020905b81548152906001019060200180831161033357829003601f168201915b505050505081565b33600081815260046020908152604080832073ffffffffffffffffffffffffffffffffffffffff8716808552925280832085905551919290917f8c5be1e5ebec7d5bd14f71427d1e84f3dd0314c0f7b2291e5b200ac8c7c3b925906103c09086815260200190565b60405180910390a35060015b92915050565b73ffffffffffffffffffffffffffffffffffffffff831660009081526004602090815260408083203384529091528120547fffffffffffffffffffffffffffffffffffffffffffffffffffffffffffffffff8114610466576104348382610f19565b73ffffffffffffffffffffffffffffffffffffffff861660009081526004602090815260408083203384529091529020555b73ffffffffffffffffffffffffffffffffffffffff85166000908152600360205260408120805485929061049b908490610f19565b909155505073ffffffffffffffffffffffffffffffffffffffff808516600081815260036020526040908190208054870190555190918716907fddf252ad1be2c89b69c2b068fc378daa952ba7f163c4a11628f55a4df523b3ef906105039087815260200190565b60405180910390a3506001949350505050565b60007f0000000000000000000000000000000000000000000000000000000000000000461461054c57610547610b33565b905090565b507f000000000000000000000000000000000000000000000000000000000000000090565b60065473ffffffffffffffffffffffffffffffffffffffff1633146105f7576040517f08c379a000000000000000000000000000000000000000000000000000000000815260206004820152600c60248201527f554e415554484f52495a4544000000000000000000000000000000000000000060448201526064015b60405180910390fd5b6106018282610bcd565b5050565b600180546102d790610e97565b60065473ffffffffffffffffffffffffffffffffffffffff163314610693576040517f08c379a000000000000000000000000000000000000000000000000000000000815260206004820152600c60248201527f554e415554484f52495a4544000000000000000000000000000000000000000060448201526064016105ee565b6106018282610c46565b336000908152600360205260408120805483919083906106be908490610f19565b909155505073ffffffffffffffffffffffffffffffffffffffff8316600081815260036020526040908190208054850190555133907fddf252ad1be2c89b69c2b068fc378daa952ba7f163c4a11628f55a4df523b3ef906103c09086815260200190565b4284101561078c576040517f08c379a000000000000000000000000000000000000000000000000000000000815260206004820152601760248201527f5045524d49545f444541444c494e455f4558504952454400000000000000000060448201526064016105ee565b60006001610798610516565b73ffffffffffffffffffffffffffffffffffffffff8a811660008181526005602090815260409182902080546001810190915582517f6e71edae12b1b97f4d1f60370fef10105fa2faae0126114a169c64845d6126c98184015280840194909452938d166060840152608083018c905260a083019390935260c08083018b90528151808403909101815260e0830190915280519201919091207f190100000000000000000000000000000000000000000000000000000000000061010083015261010282019290925261012281019190915261014201604080517fffffffffffffffffffffffffffffffffffffffffffffffffffffffffffffffe08184030181528282528051602091820120600084529083018083525260ff871690820152606081018590526080810184905260a0016020604051602081039080840390855afa1580156108ea573d6000803e3d6000fd5b50506040517fffffffffffffffffffffffffffffffffffffffffffffffffffffffffffffffe0015191505073ffffffffffffffffffffffffffffffffffffffff81161580159061096557508773ffffffffffffffffffffffffffffffffffffffff168173ffffffffffffffffffffffffffffffffffffffff16145b6109cb576040517f08c379a000000000000000000000000000000000000000000000000000000000815260206004820152600e60248201527f494e56414c49445f5349474e455200000000000000000000000000000000000060448201526064016105ee565b73ffffffffffffffffffffffffffffffffffffffff90811660009081526004602090815260408083208a8516808552908352928190208990555188815291928a16917f8c5be1e5ebec7d5bd14f71427d1e84f3dd0314c0f7b2291e5b200ac8c7c3b925910160405180910390a350505050505050565b60065473ffffffffffffffffffffffffffffffffffffffff163314610ac2576040517f08c379a000000000000000000000000000000000000000000000000000000000815260206004820152600c60248201527f554e415554484f52495a4544000000000000000000000000000000000000000060448201526064016105ee565b600680547fffffffffffffffffffffffff00000000000000000000000000000000000000001673ffffffffffffffffffffffffffffffffffffffff831690811790915560405133907f8be0079c531659141344cd1fd0a4f28419497f9722a3daafe3b4186f6b6457e090600090a350565b60007f8b73c3c69bb8fe3d512ecc4cf759cc79239f7b179b0ffacaa9a75d522b39400f6000604051610b659190610f2c565b6040805191829003822060208301939093528101919091527fc89efdaa54c0f20c7adf612882df0950f5a951637e0307cdcb4c672f298b8bc660608201524660808201523060a082015260c00160405160208183030381529060405280519060200120905090565b8060026000828254610bdf9190611002565b909155505073ffffffffffffffffffffffffffffffffffffffff82166000818152600360209081526040808320805486019055518481527fddf252ad1be2c89b69c2b068fc378daa952ba7f163c4a11628f55a4df523b3ef91015b60405180910390a35050565b73ffffffffffffffffffffffffffffffffffffffff821660009081526003602052604081208054839290610c7b908490610f19565b909155505060028054829003905560405181815260009073ffffffffffffffffffffffffffffffffffffffff8416907fddf252ad1be2c89b69c2b068fc378daa952ba7f163c4a11628f55a4df523b3ef90602001610c3a565b600060208083528351808285015260005b81811015610d0157858101830151858201604001528201610ce5565b5060006040828601015260407fffffffffffffffffffffffffffffffffffffffffffffffffffffffffffffffe0601f8301168501019250505092915050565b803573ffffffffffffffffffffffffffffffffffffffff81168114610d6457600080fd5b919050565b60008060408385031215610d7c57600080fd5b610d8583610d40565b946020939093013593505050565b600080600060608486031215610da857600080fd5b610db184610d40565b9250610dbf60208501610d40565b9150604084013590509250925092565b600060208284031215610de157600080fd5b610dea82610d40565b9392505050565b600080600080600080600060e0888a031215610e0c57600080fd5b610e1588610d40565b9650610e2360208901610d40565b95506040880135945060608801359350608088013560ff81168114610e4757600080fd5b9699959850939692959460a0840135945060c09093013592915050565b60008060408385031215610e7757600080fd5b610e8083610d40565b9150610e8e60208401610d40565b90509250929050565b600181811c90821680610eab57607f821691505b602082108103610ee4577f4e487b7100000000000000000000000000000000000000000000000000000000600052602260045260246000fd5b50919050565b7f4e487b7100000000000000000000000000000000000000000000000000000000600052601160045260246000fd5b818103818111156103cc576103cc610eea565b600080835481600182811c915080831680610f4857607f831692505b60208084108203610f80577f4e487b710000000000000000000000000000000000000000000000000000000086526022600452602486fd5b818015610f945760018114610fc757610ff4565b7fffffffffffffffffffffffffffffffffffffffffffffffffffffffffffffff0086168952841515850289019650610ff4565b60008a81526020902060005b86811015610fec5781548b820152908501908301610fd3565b505084890196505b509498975050505050505050565b808201808211156103cc576103cc610eea56fea26469706673582212209f8f3ae5fe0a8f7901a5be94ee72319260dba630233be5f23e467c4598c58c0964736f6c6343000811003360806040523480156200001157600080fd5b5060405162001360380380620013608339810160408190526200003491620000a5565b600280546001600160a01b039586166001600160a01b031991821617909155600380549486169482169490941790935560048054928516928416929092179091556005805491909316911617905562000102565b80516001600160a01b0381168114620000a057600080fd5b919050565b60008060008060808587031215620000bc57600080fd5b620000c78562000088565b9350620000d76020860162000088565b9250620000e76040860162000088565b9150620000f76060860162000088565b905092959194509250565b61124e80620001126000396000f3fe608060405234801561001057600080fd5b50600436106100df5760003560e01c80637dc0d1d01161008c578063d878016111610066578063d878016114610206578063d8dfeb4514610219578063e2bbb15814610239578063e63697c81461024c57600080fd5b80637dc0d1d0146101a6578063add95a51146101c6578063cf748df9146101e657600080fd5b806335f2faf0116100bd57806335f2faf0146101565780634ebd7e741461017357806379bd1eac1461019357600080fd5b80630f5eea91146100e457806316ae57a31461012e578063176c0abd14610143575b600080fd5b6002546101049073ffffffffffffffffffffffffffffffffffffffff1681565b60405173ffffffffffffffffffffffffffffffffffffffff90911681526020015b60405180910390f35b61014161013c36600461103b565b61025f565b005b61014161015136600461105d565b610347565b6101656729a2241af62c000081565b604051908152602001610125565b6101656101813660046110ae565b60006020819052908152604090205481565b6101416101a136600461105d565b610567565b6005546101049073ffffffffffffffffffffffffffffffffffffffff1681565b6003546101049073ffffffffffffffffffffffffffffffffffffffff1681565b6101656101f43660046110ae565b60016020526000908152604090205481565b61016561021436600461105d565b6106f2565b6004546101049073ffffffffffffffffffffffffffffffffffffffff1681565b61014161024736600461103b565b6109bd565b61014161025a36600461105d565b610b88565b6003546040517f9dc29fac0000000000000000000000000000000000000000000000000000000081523360048201526024810183905273ffffffffffffffffffffffffffffffffffffffff90911690639dc29fac90604401600060405180830381600087803b1580156102d157600080fd5b505af11580156102e5573d6000803e3d6000fd5b505050600083815260016020526040812080548493509091906103099084906110f6565b909155505060405181815282907fbc4444983b3b8260a57895352d214c2bbcd71114f2b49bea20e76cd64999a7cf9060200160405180910390a25050565b6002546040517f4cf1585800000000000000000000000000000000000000000000000000000000815260048101859052336024820152849173ffffffffffffffffffffffffffffffffffffffff1690634cf1585890604401602060405180830381865afa1580156103bc573d6000803e3d6000fd5b505050506040513d601f19601f820116820180604052508101906103e09190611109565b610416576040517f3f904dc000000000000000000000000000000000000000000000000000000000815260040160405180910390fd5b6000848152600160205260408120805484929061043490849061112b565b909155506729a2241af62c0000905061044c85610dae565b1015610484576040517f40da557a00000000000000000000000000000000000000000000000000000000815260040160405180910390fd5b6003546040517f40c10f1900000000000000000000000000000000000000000000000000000000815273ffffffffffffffffffffffffffffffffffffffff858116600483015260248201859052909116906340c10f1990604401600060405180830381600087803b1580156104f857600080fd5b505af115801561050c573d6000803e3d6000fd5b505050508273ffffffffffffffffffffffffffffffffffffffff16847fc7a0f9746296432bab185f8f0020c7c9489291fd5cfac7593c7665f72bc9d9c48460405161055991815260200190565b60405180910390a350505050565b6729a2241af62c000061057984610dae565b106105b0576040517f05e666e800000000000000000000000000000000000000000000000000000000815260040160405180910390fd5b600083815260208190526040812080548392906105ce90849061112b565b909155506729a2241af62c000090506105e684610dae565b101561061e576040517f40da557a00000000000000000000000000000000000000000000000000000000815260040160405180910390fd5b6002546040517f5fae8b3d0000000000000000000000000000000000000000000000000000000081526004810185905273ffffffffffffffffffffffffffffffffffffffff848116602483015290911690635fae8b3d90604401600060405180830381600087803b15801561069257600080fd5b505af11580156106a6573d6000803e3d6000fd5b505060405173ffffffffffffffffffffffffffffffffffffffff851692508591507f9d57e76bcd4b88b0969cb0e0333b5da0931cb34b689f331b40e564e3f76a2f5a90600090a3505050565b6002546040517f4cf1585800000000000000000000000000000000000000000000000000000000815260048101859052336024820152600091859173ffffffffffffffffffffffffffffffffffffffff90911690634cf1585890604401602060405180830381865afa15801561076c573d6000803e3d6000fd5b505050506040513d601f19601f820116820180604052508101906107909190611109565b6107c6576040517f3f904dc000000000000000000000000000000000000000000000000000000000815260040160405180910390fd5b6003546040517f9dc29fac0000000000000000000000000000000000000000000000000000000081523360048201526024810185905273ffffffffffffffffffffffffffffffffffffffff90911690639dc29fac90604401600060405180830381600087803b15801561083857600080fd5b505af115801561084c573d6000803e3d6000fd5b505050600086815260016020526040812080548693509091906108709084906110f6565b9091555060009050610880610e2d565b61088e856305f5e10061113e565b6108989190611155565b90508060008088815260200190815260200160002060008282546108bc91906110f6565b9091555050600480546040517fa9059cbb00000000000000000000000000000000000000000000000000000000815273ffffffffffffffffffffffffffffffffffffffff888116938201939093526024810187905291169063a9059cbb906044016020604051808303816000875af115801561093c573d6000803e3d6000fd5b505050506040513d601f19601f820116820180604052508101906109609190611109565b50604080518581526020810183905273ffffffffffffffffffffffffffffffffffffffff87169188917fdd2d8631d27ce277aa03636f75ad665aa9f13516ec654fce871f889eb15cf6c7910160405180910390a395945050505050565b600254604080517f18160ddd0000000000000000000000000000000000000000000000000000000081529051849273ffffffffffffffffffffffffffffffffffffffff16916318160ddd9160048083019260209291908290030181865afa158015610a2c573d6000803e3d6000fd5b505050506040513d601f19601f82011682018060405250810190610a509190611190565b8110610a88576040517f0ff2075600000000000000000000000000000000000000000000000000000000815260040160405180910390fd5b600480546040517f23b872dd00000000000000000000000000000000000000000000000000000000815233928101929092523060248301526044820184905273ffffffffffffffffffffffffffffffffffffffff16906323b872dd906064016020604051808303816000875af1158015610b06573d6000803e3d6000fd5b505050506040513d601f19601f82011682018060405250810190610b2a9190611109565b5060008381526020819052604081208054849290610b4990849061112b565b909155505060405182815283907fa3af609bf46297028ce551832669030f9effef2b02606d02cbbcc40fe6b47c559060200160405180910390a2505050565b6002546040517f4cf1585800000000000000000000000000000000000000000000000000000000815260048101859052336024820152849173ffffffffffffffffffffffffffffffffffffffff1690634cf1585890604401602060405180830381865afa158015610bfd573d6000803e3d6000fd5b505050506040513d601f19601f82011682018060405250810190610c219190611109565b610c57576040517f3f904dc000000000000000000000000000000000000000000000000000000000815260040160405180910390fd5b60008481526020819052604081208054849290610c759084906110f6565b909155506729a2241af62c00009050610c8d85610dae565b1015610cc5576040517f40da557a00000000000000000000000000000000000000000000000000000000815260040160405180910390fd5b600480546040517fa9059cbb00000000000000000000000000000000000000000000000000000000815273ffffffffffffffffffffffffffffffffffffffff868116938201939093526024810185905291169063a9059cbb906044016020604051808303816000875af1158015610d40573d6000803e3d6000fd5b505050506040513d601f19601f82011682018060405250810190610d649190611109565b508273ffffffffffffffffffffffffffffffffffffffff16847f9da6493a92039daf47d1f2d7a782299c5994c6323eb1e972f69c432089ec52bf8460405161055991815260200190565b600081815260016020526040812054808203610dec57507fffffffffffffffffffffffffffffffffffffffffffffffffffffffffffffffff92915050565b610e26816305f5e100610dfd610e2d565b600087815260208190526040902054610e16919061113e565b610e209190611155565b90610f6d565b9392505050565b6000806000806000600560009054906101000a900473ffffffffffffffffffffffffffffffffffffffff1673ffffffffffffffffffffffffffffffffffffffff1663feaf968c6040518163ffffffff1660e01b815260040160a060405180830381865afa158015610ea2573d6000803e3d6000fd5b505050506040513d601f19601f82011682018060405250810190610ec691906111c8565b94509450509350935081600003610f09576040517f8ad52bdd00000000000000000000000000000000000000000000000000000000815260040160405180910390fd5b8369ffffffffffffffffffff168169ffffffffffffffffffff161015610f5b576040517f6ead710b00000000000000000000000000000000000000000000000000000000815260040160405180910390fd5b610f6483610f8b565b94505050505090565b6000610f8283670de0b6b3a764000084610fff565b90505b92915050565b600080821215610ffb576040517f08c379a000000000000000000000000000000000000000000000000000000000815260206004820181905260248201527f53616665436173743a2076616c7565206d75737420626520706f736974697665604482015260640160405180910390fd5b5090565b6000827fffffffffffffffffffffffffffffffffffffffffffffffffffffffffffffffff048411830215820261103457600080fd5b5091020490565b6000806040838503121561104e57600080fd5b50508035926020909101359150565b60008060006060848603121561107257600080fd5b83359250602084013573ffffffffffffffffffffffffffffffffffffffff8116811461109d57600080fd5b929592945050506040919091013590565b6000602082840312156110c057600080fd5b5035919050565b7f4e487b7100000000000000000000000000000000000000000000000000000000600052601160045260246000fd5b81810381811115610f8557610f856110c7565b60006020828403121561111b57600080fd5b81518015158114610e2657600080fd5b80820180821115610f8557610f856110c7565b8082028115828204841417610f8557610f856110c7565b60008261118b577f4e487b7100000000000000000000000000000000000000000000000000000000600052601260045260246000fd5b500490565b6000602082840312156111a257600080fd5b5051919050565b805169ffffffffffffffffffff811681146111c357600080fd5b919050565b600080600080600060a086880312156111e057600080fd5b6111e9866111a9565b945060208601519350604086015192506060860151915061120c608087016111a9565b9050929550929590935056fea2646970667358221220682d4f38e349d148029a2b00b953c4b621a0eb8fe69928f612d69f88b05282b864736f6c63430008110033a264697066735822122096f0b2a68974d9a0150be31e7b9f8a56a82b55823fba76bdd84b12931b972e8e64736f6c63430008110033",
    "linkReferences": {}
  },
  "methodIdentifiers": {
    "dNft()": "0f5eea91",
    "deploy(address,address,string)": "2e7f138a",
    "deployed(address,address)": "197efba2"
  },
  "id": 40
}