{
  "abi": [
    {
      "inputs": [
        {
          "internalType": "contract DNft",
          "name": "_dNft",
          "type": "address"
        },
        {
          "internalType": "contract Dyad",
          "name": "_dyad",
          "type": "address"
        },
        {
          "internalType": "contract DyadPlus",
          "name": "_dyadPlus",
          "type": "address"
        }
      ],
      "stateMutability": "nonpayable",
      "type": "constructor"
    },
    {
      "inputs": [],
      "name": "NotOwner",
      "type": "error"
    },
    {
      "inputs": [
        {
          "internalType": "uint256",
          "name": "id",
          "type": "uint256"
        },
        {
          "internalType": "uint256",
          "name": "amount",
          "type": "uint256"
        }
      ],
      "name": "deposit",
      "outputs": [],
      "stateMutability": "nonpayable",
      "type": "function"
    },
    {
      "inputs": [
        {
          "internalType": "uint256",
          "name": "",
          "type": "uint256"
        }
      ],
      "name": "id2credit",
      "outputs": [
        {
          "internalType": "uint256",
          "name": "",
          "type": "uint256"
        }
      ],
      "stateMutability": "view",
      "type": "function"
    },
    {
      "inputs": [
        {
          "internalType": "uint256",
          "name": "",
          "type": "uint256"
        }
      ],
      "name": "id2deposit",
      "outputs": [
        {
          "internalType": "uint256",
          "name": "",
          "type": "uint256"
        }
      ],
      "stateMutability": "view",
      "type": "function"
    },
    {
      "inputs": [
        {
          "internalType": "uint256",
          "name": "",
          "type": "uint256"
        }
      ],
      "name": "id2principal",
      "outputs": [
        {
          "internalType": "uint256",
          "name": "",
          "type": "uint256"
        }
      ],
      "stateMutability": "view",
      "type": "function"
    },
    {
      "inputs": [
        {
          "internalType": "uint256",
          "name": "",
          "type": "uint256"
        }
      ],
      "name": "id2xp",
      "outputs": [
        {
          "internalType": "uint256",
          "name": "",
          "type": "uint256"
        }
      ],
      "stateMutability": "view",
      "type": "function"
    },
    {
      "inputs": [
        {
          "internalType": "address",
          "name": "to",
          "type": "address"
        },
        {
          "internalType": "uint256",
          "name": "amount",
          "type": "uint256"
        }
      ],
      "name": "redeem",
      "outputs": [],
      "stateMutability": "nonpayable",
      "type": "function"
    },
    {
      "inputs": [
        {
          "internalType": "uint256",
          "name": "id",
          "type": "uint256"
        },
        {
          "internalType": "address",
          "name": "to",
          "type": "address"
        },
        {
          "internalType": "uint256",
          "name": "amount",
          "type": "uint256"
        }
      ],
      "name": "withdraw",
      "outputs": [],
      "stateMutability": "nonpayable",
      "type": "function"
    }
  ],
  "bytecode": {
    "object": "0x608060405234801561001057600080fd5b5060405161084238038061084283398101604081905261002f91610089565b600080546001600160a01b039485166001600160a01b0319918216179091556001805493851693821693909317909255600280549190931691161790556100d6565b6001600160a01b038116811461008657600080fd5b50565b60008060006060848603121561009e57600080fd5b83516100a981610071565b60208501519093506100ba81610071565b60408501519092506100cb81610071565b809150509250925092565b61075d806100e56000396000f3fe608060405234801561001057600080fd5b506004361061007d5760003560e01c8063927d0e671161005b578063927d0e67146100e9578063e2bbb15814610109578063e63697c81461011c578063fdc8e2841461012f57600080fd5b806319d90507146100825780631e9a6950146100b457806332794d2f146100c9575b600080fd5b6100a26100903660046105c2565b60036020526000908152604090205481565b60405190815260200160405180910390f35b6100c76100c2366004610600565b61014f565b005b6100a26100d73660046105c2565b60066020526000908152604090205481565b6100a26100f73660046105c2565b60046020526000908152604090205481565b6100c761011736600461062c565b61027b565b6100c761012a36600461064e565b610429565b6100a261013d3660046105c2565b60056020526000908152604090205481565b6002546040517f9dc29fac0000000000000000000000000000000000000000000000000000000081523360048201526024810183905273ffffffffffffffffffffffffffffffffffffffff90911690639dc29fac90604401600060405180830381600087803b1580156101c157600080fd5b505af11580156101d5573d6000803e3d6000fd5b50506001546040517fa9059cbb00000000000000000000000000000000000000000000000000000000815273ffffffffffffffffffffffffffffffffffffffff868116600483015260248201869052909116925063a9059cbb91506044016020604051808303816000875af1158015610252573d6000803e3d6000fd5b505050506040513d601f19601f820116820180604052508101906102769190610686565b505050565b6000546040517f6352211e000000000000000000000000000000000000000000000000000000008152600481018490528391339173ffffffffffffffffffffffffffffffffffffffff90911690636352211e90602401602060405180830381865afa1580156102ee573d6000803e3d6000fd5b505050506040513d601f19601f8201168201806040525081019061031291906106af565b73ffffffffffffffffffffffffffffffffffffffff161461035f576040517f30cd747100000000000000000000000000000000000000000000000000000000815260040160405180910390fd5b6001546040517f23b872dd0000000000000000000000000000000000000000000000000000000081523360048201523060248201526044810184905273ffffffffffffffffffffffffffffffffffffffff909116906323b872dd906064016020604051808303816000875af11580156103dc573d6000803e3d6000fd5b505050506040513d601f19601f820116820180604052508101906104009190610686565b506000838152600560205260408120805484929061041f9084906106fb565b9091555050505050565b6000546040517f6352211e000000000000000000000000000000000000000000000000000000008152600481018590528491339173ffffffffffffffffffffffffffffffffffffffff90911690636352211e90602401602060405180830381865afa15801561049c573d6000803e3d6000fd5b505050506040513d601f19601f820116820180604052508101906104c091906106af565b73ffffffffffffffffffffffffffffffffffffffff161461050d576040517f30cd747100000000000000000000000000000000000000000000000000000000815260040160405180910390fd5b6000848152600560205260408120805484929061052b908490610714565b90915550506002546040517f40c10f1900000000000000000000000000000000000000000000000000000000815273ffffffffffffffffffffffffffffffffffffffff858116600483015260248201859052909116906340c10f1990604401600060405180830381600087803b1580156105a457600080fd5b505af11580156105b8573d6000803e3d6000fd5b5050505050505050565b6000602082840312156105d457600080fd5b5035919050565b73ffffffffffffffffffffffffffffffffffffffff811681146105fd57600080fd5b50565b6000806040838503121561061357600080fd5b823561061e816105db565b946020939093013593505050565b6000806040838503121561063f57600080fd5b50508035926020909101359150565b60008060006060848603121561066357600080fd5b833592506020840135610675816105db565b929592945050506040919091013590565b60006020828403121561069857600080fd5b815180151581146106a857600080fd5b9392505050565b6000602082840312156106c157600080fd5b81516106a8816105db565b7f4e487b7100000000000000000000000000000000000000000000000000000000600052601160045260246000fd5b8082018082111561070e5761070e6106cc565b92915050565b8181038181111561070e5761070e6106cc56fea26469706673582212209cefe53f734f14a6e4656db3b93d179079457e72ab17c07d95bbff21ae99d20364736f6c63430008110033",
    "linkReferences": {}
  },
  "methodIdentifiers": {
    "deposit(uint256,uint256)": "e2bbb158",
    "id2credit(uint256)": "927d0e67",
    "id2deposit(uint256)": "fdc8e284",
    "id2principal(uint256)": "32794d2f",
    "id2xp(uint256)": "19d90507",
    "redeem(address,uint256)": "1e9a6950",
    "withdraw(uint256,address,uint256)": "e63697c8"
  },
  "id": 37
}