{
  "abi": [
    {
      "inputs": [],
      "name": "latestRoundData",
      "outputs": [
        {
          "internalType": "uint80",
          "name": "roundId",
          "type": "uint80"
        },
        {
          "internalType": "int256",
          "name": "answer",
          "type": "int256"
        },
        {
          "internalType": "uint256",
          "name": "startedAt",
          "type": "uint256"
        },
        {
          "internalType": "uint256",
          "name": "updatedAt",
          "type": "uint256"
        },
        {
          "internalType": "uint80",
          "name": "answeredInRound",
          "type": "uint80"
        }
      ],
      "stateMutability": "view",
      "type": "function"
    },
    {
      "inputs": [],
      "name": "price",
      "outputs": [
        {
          "internalType": "int256",
          "name": "",
          "type": "int256"
        }
      ],
      "stateMutability": "view",
      "type": "function"
    },
    {
      "inputs": [
        {
          "internalType": "int256",
          "name": "_price",
          "type": "int256"
        }
      ],
      "name": "setPrice",
      "outputs": [],
      "stateMutability": "nonpayable",
      "type": "function"
    }
  ],
  "bytecode": {
    "object": "0x608060405264174876e80060005534801561001957600080fd5b5060ec806100286000396000f3fe6080604052348015600f57600080fd5b5060043610603c5760003560e01c8063a035b1fe146041578063f7a3080614605c578063feaf968c14606e575b600080fd5b604960005481565b6040519081526020015b60405180910390f35b606c6067366004609e565b600055565b005b600054604080516001808252602082019390935290810182905260608101829052608081019190915260a0016053565b60006020828403121560af57600080fd5b503591905056fea2646970667358221220a2e474a96204c0dc4fd2c37a88085548e9e133d007019e765d897f89d887badb64736f6c63430008110033",
    "linkReferences": {}
  },
  "methodIdentifiers": {
    "latestRoundData()": "feaf968c",
    "price()": "a035b1fe",
    "setPrice(int256)": "f7a30806"
  },
  "id": 49
}