{
  "abi": [
    {
      "inputs": [
        {
          "internalType": "address",
          "name": "_dNft",
          "type": "address"
        },
        {
          "internalType": "address",
          "name": "_dyad",
          "type": "address"
        },
        {
          "internalType": "address",
          "name": "_collateral",
          "type": "address"
        },
        {
          "internalType": "address",
          "name": "_oracle",
          "type": "address"
        }
      ],
      "stateMutability": "nonpayable",
      "type": "constructor"
    },
    {
      "inputs": [],
      "name": "CrTooHigh",
      "type": "error"
    },
    {
      "inputs": [],
      "name": "CrTooLow",
      "type": "error"
    },
    {
      "inputs": [],
      "name": "IncompleteRound",
      "type": "error"
    },
    {
      "inputs": [],
      "name": "InvalidNft",
      "type": "error"
    },
    {
      "inputs": [],
      "name": "MissingPermission",
      "type": "error"
    },
    {
      "inputs": [],
      "name": "NotOwner",
      "type": "error"
    },
    {
      "inputs": [],
      "name": "StaleData",
      "type": "error"
    },
    {
      "anonymous": false,
      "inputs": [
        {
          "indexed": true,
          "internalType": "uint256",
          "name": "id",
          "type": "uint256"
        },
        {
          "indexed": false,
          "internalType": "uint256",
          "name": "amount",
          "type": "uint256"
        }
      ],
      "name": "BurnDyad",
      "type": "event"
    },
    {
      "anonymous": false,
      "inputs": [
        {
          "indexed": true,
          "internalType": "uint256",
          "name": "id",
          "type": "uint256"
        },
        {
          "indexed": false,
          "internalType": "uint256",
          "name": "amount",
          "type": "uint256"
        }
      ],
      "name": "Deposit",
      "type": "event"
    },
    {
      "anonymous": false,
      "inputs": [
        {
          "indexed": true,
          "internalType": "uint256",
          "name": "id",
          "type": "uint256"
        },
        {
          "indexed": true,
          "internalType": "address",
          "name": "to",
          "type": "address"
        }
      ],
      "name": "Liquidate",
      "type": "event"
    },
    {
      "anonymous": false,
      "inputs": [
        {
          "indexed": true,
          "internalType": "uint256",
          "name": "from",
          "type": "uint256"
        },
        {
          "indexed": true,
          "internalType": "address",
          "name": "to",
          "type": "address"
        },
        {
          "indexed": false,
          "internalType": "uint256",
          "name": "amount",
          "type": "uint256"
        }
      ],
      "name": "MintDyad",
      "type": "event"
    },
    {
      "anonymous": false,
      "inputs": [
        {
          "indexed": true,
          "internalType": "uint256",
          "name": "from",
          "type": "uint256"
        },
        {
          "indexed": false,
          "internalType": "uint256",
          "name": "amount",
          "type": "uint256"
        },
        {
          "indexed": true,
          "internalType": "address",
          "name": "to",
          "type": "address"
        },
        {
          "indexed": false,
          "internalType": "uint256",
          "name": "eth",
          "type": "uint256"
        }
      ],
      "name": "Redeem",
      "type": "event"
    },
    {
      "anonymous": false,
      "inputs": [
        {
          "indexed": true,
          "internalType": "uint256",
          "name": "from",
          "type": "uint256"
        },
        {
          "indexed": true,
          "internalType": "address",
          "name": "to",
          "type": "address"
        },
        {
          "indexed": false,
          "internalType": "uint256",
          "name": "amount",
          "type": "uint256"
        }
      ],
      "name": "Withdraw",
      "type": "event"
    },
    {
      "inputs": [],
      "name": "MIN_COLLATERIZATION_RATIO",
      "outputs": [
        {
          "internalType": "uint256",
          "name": "",
          "type": "uint256"
        }
      ],
      "stateMutability": "view",
      "type": "function"
    },
    {
      "inputs": [
        {
          "internalType": "uint256",
          "name": "id",
          "type": "uint256"
        },
        {
          "internalType": "uint256",
          "name": "amount",
          "type": "uint256"
        }
      ],
      "name": "burnDyad",
      "outputs": [],
      "stateMutability": "nonpayable",
      "type": "function"
    },
    {
      "inputs": [],
      "name": "collateral",
      "outputs": [
        {
          "internalType": "contract IERC20",
          "name": "",
          "type": "address"
        }
      ],
      "stateMutability": "view",
      "type": "function"
    },
    {
      "inputs": [],
      "name": "dNft",
      "outputs": [
        {
          "internalType": "contract DNft",
          "name": "",
          "type": "address"
        }
      ],
      "stateMutability": "view",
      "type": "function"
    },
    {
      "inputs": [
        {
          "internalType": "uint256",
          "name": "id",
          "type": "uint256"
        },
        {
          "internalType": "uint256",
          "name": "amount",
          "type": "uint256"
        }
      ],
      "name": "deposit",
      "outputs": [],
      "stateMutability": "nonpayable",
      "type": "function"
    },
    {
      "inputs": [],
      "name": "dyad",
      "outputs": [
        {
          "internalType": "contract Dyad",
          "name": "",
          "type": "address"
        }
      ],
      "stateMutability": "view",
      "type": "function"
    },
    {
      "inputs": [
        {
          "internalType": "uint256",
          "name": "",
          "type": "uint256"
        }
      ],
      "name": "id2collateral",
      "outputs": [
        {
          "internalType": "uint256",
          "name": "",
          "type": "uint256"
        }
      ],
      "stateMutability": "view",
      "type": "function"
    },
    {
      "inputs": [
        {
          "internalType": "uint256",
          "name": "",
          "type": "uint256"
        }
      ],
      "name": "id2dyad",
      "outputs": [
        {
          "internalType": "uint256",
          "name": "",
          "type": "uint256"
        }
      ],
      "stateMutability": "view",
      "type": "function"
    },
    {
      "inputs": [
        {
          "internalType": "uint256",
          "name": "id",
          "type": "uint256"
        },
        {
          "internalType": "address",
          "name": "to",
          "type": "address"
        },
        {
          "internalType": "uint256",
          "name": "amount",
          "type": "uint256"
        }
      ],
      "name": "liquidate",
      "outputs": [],
      "stateMutability": "nonpayable",
      "type": "function"
    },
    {
      "inputs": [
        {
          "internalType": "uint256",
          "name": "from",
          "type": "uint256"
        },
        {
          "internalType": "address",
          "name": "to",
          "type": "address"
        },
        {
          "internalType": "uint256",
          "name": "amount",
          "type": "uint256"
        }
      ],
      "name": "mintDyad",
      "outputs": [],
      "stateMutability": "nonpayable",
      "type": "function"
    },
    {
      "inputs": [],
      "name": "oracle",
      "outputs": [
        {
          "internalType": "contract IAggregatorV3",
          "name": "",
          "type": "address"
        }
      ],
      "stateMutability": "view",
      "type": "function"
    },
    {
      "inputs": [
        {
          "internalType": "uint256",
          "name": "from",
          "type": "uint256"
        },
        {
          "internalType": "address",
          "name": "to",
          "type": "address"
        },
        {
          "internalType": "uint256",
          "name": "amount",
          "type": "uint256"
        }
      ],
      "name": "redeem",
      "outputs": [
        {
          "internalType": "uint256",
          "name": "",
          "type": "uint256"
        }
      ],
      "stateMutability": "nonpayable",
      "type": "function"
    },
    {
      "inputs": [
        {
          "internalType": "uint256",
          "name": "from",
          "type": "uint256"
        },
        {
          "internalType": "address",
          "name": "to",
          "type": "address"
        },
        {
          "internalType": "uint256",
          "name": "amount",
          "type": "uint256"
        }
      ],
      "name": "withdraw",
      "outputs": [],
      "stateMutability": "nonpayable",
      "type": "function"
    }
  ],
  "bytecode": {
    "object": "0x60806040523480156200001157600080fd5b5060405162001360380380620013608339810160408190526200003491620000a5565b600280546001600160a01b039586166001600160a01b031991821617909155600380549486169482169490941790935560048054928516928416929092179091556005805491909316911617905562000102565b80516001600160a01b0381168114620000a057600080fd5b919050565b60008060008060808587031215620000bc57600080fd5b620000c78562000088565b9350620000d76020860162000088565b9250620000e76040860162000088565b9150620000f76060860162000088565b905092959194509250565b61124e80620001126000396000f3fe608060405234801561001057600080fd5b50600436106100df5760003560e01c80637dc0d1d01161008c578063d878016111610066578063d878016114610206578063d8dfeb4514610219578063e2bbb15814610239578063e63697c81461024c57600080fd5b80637dc0d1d0146101a6578063add95a51146101c6578063cf748df9146101e657600080fd5b806335f2faf0116100bd57806335f2faf0146101565780634ebd7e741461017357806379bd1eac1461019357600080fd5b80630f5eea91146100e457806316ae57a31461012e578063176c0abd14610143575b600080fd5b6002546101049073ffffffffffffffffffffffffffffffffffffffff1681565b60405173ffffffffffffffffffffffffffffffffffffffff90911681526020015b60405180910390f35b61014161013c36600461103b565b61025f565b005b61014161015136600461105d565b610347565b6101656729a2241af62c000081565b604051908152602001610125565b6101656101813660046110ae565b60006020819052908152604090205481565b6101416101a136600461105d565b610567565b6005546101049073ffffffffffffffffffffffffffffffffffffffff1681565b6003546101049073ffffffffffffffffffffffffffffffffffffffff1681565b6101656101f43660046110ae565b60016020526000908152604090205481565b61016561021436600461105d565b6106f2565b6004546101049073ffffffffffffffffffffffffffffffffffffffff1681565b61014161024736600461103b565b6109bd565b61014161025a36600461105d565b610b88565b6003546040517f9dc29fac0000000000000000000000000000000000000000000000000000000081523360048201526024810183905273ffffffffffffffffffffffffffffffffffffffff90911690639dc29fac90604401600060405180830381600087803b1580156102d157600080fd5b505af11580156102e5573d6000803e3d6000fd5b505050600083815260016020526040812080548493509091906103099084906110f6565b909155505060405181815282907fbc4444983b3b8260a57895352d214c2bbcd71114f2b49bea20e76cd64999a7cf9060200160405180910390a25050565b6002546040517f4cf1585800000000000000000000000000000000000000000000000000000000815260048101859052336024820152849173ffffffffffffffffffffffffffffffffffffffff1690634cf1585890604401602060405180830381865afa1580156103bc573d6000803e3d6000fd5b505050506040513d601f19601f820116820180604052508101906103e09190611109565b610416576040517f3f904dc000000000000000000000000000000000000000000000000000000000815260040160405180910390fd5b6000848152600160205260408120805484929061043490849061112b565b909155506729a2241af62c0000905061044c85610dae565b1015610484576040517f40da557a00000000000000000000000000000000000000000000000000000000815260040160405180910390fd5b6003546040517f40c10f1900000000000000000000000000000000000000000000000000000000815273ffffffffffffffffffffffffffffffffffffffff858116600483015260248201859052909116906340c10f1990604401600060405180830381600087803b1580156104f857600080fd5b505af115801561050c573d6000803e3d6000fd5b505050508273ffffffffffffffffffffffffffffffffffffffff16847fc7a0f9746296432bab185f8f0020c7c9489291fd5cfac7593c7665f72bc9d9c48460405161055991815260200190565b60405180910390a350505050565b6729a2241af62c000061057984610dae565b106105b0576040517f05e666e800000000000000000000000000000000000000000000000000000000815260040160405180910390fd5b600083815260208190526040812080548392906105ce90849061112b565b909155506729a2241af62c000090506105e684610dae565b101561061e576040517f40da557a00000000000000000000000000000000000000000000000000000000815260040160405180910390fd5b6002546040517f5fae8b3d0000000000000000000000000000000000000000000000000000000081526004810185905273ffffffffffffffffffffffffffffffffffffffff848116602483015290911690635fae8b3d90604401600060405180830381600087803b15801561069257600080fd5b505af11580156106a6573d6000803e3d6000fd5b505060405173ffffffffffffffffffffffffffffffffffffffff851692508591507f9d57e76bcd4b88b0969cb0e0333b5da0931cb34b689f331b40e564e3f76a2f5a90600090a3505050565b6002546040517f4cf1585800000000000000000000000000000000000000000000000000000000815260048101859052336024820152600091859173ffffffffffffffffffffffffffffffffffffffff90911690634cf1585890604401602060405180830381865afa15801561076c573d6000803e3d6000fd5b505050506040513d601f19601f820116820180604052508101906107909190611109565b6107c6576040517f3f904dc000000000000000000000000000000000000000000000000000000000815260040160405180910390fd5b6003546040517f9dc29fac0000000000000000000000000000000000000000000000000000000081523360048201526024810185905273ffffffffffffffffffffffffffffffffffffffff90911690639dc29fac90604401600060405180830381600087803b15801561083857600080fd5b505af115801561084c573d6000803e3d6000fd5b505050600086815260016020526040812080548693509091906108709084906110f6565b9091555060009050610880610e2d565b61088e856305f5e10061113e565b6108989190611155565b90508060008088815260200190815260200160002060008282546108bc91906110f6565b9091555050600480546040517fa9059cbb00000000000000000000000000000000000000000000000000000000815273ffffffffffffffffffffffffffffffffffffffff888116938201939093526024810187905291169063a9059cbb906044016020604051808303816000875af115801561093c573d6000803e3d6000fd5b505050506040513d601f19601f820116820180604052508101906109609190611109565b50604080518581526020810183905273ffffffffffffffffffffffffffffffffffffffff87169188917fdd2d8631d27ce277aa03636f75ad665aa9f13516ec654fce871f889eb15cf6c7910160405180910390a395945050505050565b600254604080517f18160ddd0000000000000000000000000000000000000000000000000000000081529051849273ffffffffffffffffffffffffffffffffffffffff16916318160ddd9160048083019260209291908290030181865afa158015610a2c573d6000803e3d6000fd5b505050506040513d601f19601f82011682018060405250810190610a509190611190565b8110610a88576040517f0ff2075600000000000000000000000000000000000000000000000000000000815260040160405180910390fd5b600480546040517f23b872dd00000000000000000000000000000000000000000000000000000000815233928101929092523060248301526044820184905273ffffffffffffffffffffffffffffffffffffffff16906323b872dd906064016020604051808303816000875af1158015610b06573d6000803e3d6000fd5b505050506040513d601f19601f82011682018060405250810190610b2a9190611109565b5060008381526020819052604081208054849290610b4990849061112b565b909155505060405182815283907fa3af609bf46297028ce551832669030f9effef2b02606d02cbbcc40fe6b47c559060200160405180910390a2505050565b6002546040517f4cf1585800000000000000000000000000000000000000000000000000000000815260048101859052336024820152849173ffffffffffffffffffffffffffffffffffffffff1690634cf1585890604401602060405180830381865afa158015610bfd573d6000803e3d6000fd5b505050506040513d601f19601f82011682018060405250810190610c219190611109565b610c57576040517f3f904dc000000000000000000000000000000000000000000000000000000000815260040160405180910390fd5b60008481526020819052604081208054849290610c759084906110f6565b909155506729a2241af62c00009050610c8d85610dae565b1015610cc5576040517f40da557a00000000000000000000000000000000000000000000000000000000815260040160405180910390fd5b600480546040517fa9059cbb00000000000000000000000000000000000000000000000000000000815273ffffffffffffffffffffffffffffffffffffffff868116938201939093526024810185905291169063a9059cbb906044016020604051808303816000875af1158015610d40573d6000803e3d6000fd5b505050506040513d601f19601f82011682018060405250810190610d649190611109565b508273ffffffffffffffffffffffffffffffffffffffff16847f9da6493a92039daf47d1f2d7a782299c5994c6323eb1e972f69c432089ec52bf8460405161055991815260200190565b600081815260016020526040812054808203610dec57507fffffffffffffffffffffffffffffffffffffffffffffffffffffffffffffffff92915050565b610e26816305f5e100610dfd610e2d565b600087815260208190526040902054610e16919061113e565b610e209190611155565b90610f6d565b9392505050565b6000806000806000600560009054906101000a900473ffffffffffffffffffffffffffffffffffffffff1673ffffffffffffffffffffffffffffffffffffffff1663feaf968c6040518163ffffffff1660e01b815260040160a060405180830381865afa158015610ea2573d6000803e3d6000fd5b505050506040513d601f19601f82011682018060405250810190610ec691906111c8565b94509450509350935081600003610f09576040517f8ad52bdd00000000000000000000000000000000000000000000000000000000815260040160405180910390fd5b8369ffffffffffffffffffff168169ffffffffffffffffffff161015610f5b576040517f6ead710b00000000000000000000000000000000000000000000000000000000815260040160405180910390fd5b610f6483610f8b565b94505050505090565b6000610f8283670de0b6b3a764000084610fff565b90505b92915050565b600080821215610ffb576040517f08c379a000000000000000000000000000000000000000000000000000000000815260206004820181905260248201527f53616665436173743a2076616c7565206d75737420626520706f736974697665604482015260640160405180910390fd5b5090565b6000827fffffffffffffffffffffffffffffffffffffffffffffffffffffffffffffffff048411830215820261103457600080fd5b5091020490565b6000806040838503121561104e57600080fd5b50508035926020909101359150565b60008060006060848603121561107257600080fd5b83359250602084013573ffffffffffffffffffffffffffffffffffffffff8116811461109d57600080fd5b929592945050506040919091013590565b6000602082840312156110c057600080fd5b5035919050565b7f4e487b7100000000000000000000000000000000000000000000000000000000600052601160045260246000fd5b81810381811115610f8557610f856110c7565b60006020828403121561111b57600080fd5b81518015158114610e2657600080fd5b80820180821115610f8557610f856110c7565b8082028115828204841417610f8557610f856110c7565b60008261118b577f4e487b7100000000000000000000000000000000000000000000000000000000600052601260045260246000fd5b500490565b6000602082840312156111a257600080fd5b5051919050565b805169ffffffffffffffffffff811681146111c357600080fd5b919050565b600080600080600060a086880312156111e057600080fd5b6111e9866111a9565b945060208601519350604086015192506060860151915061120c608087016111a9565b9050929550929590935056fea26469706673582212206703b6224d11a2949e5af59644aedfd1b70bd2c7fc673ea89da4be38d261a5ce64736f6c63430008110033",
    "linkReferences": {}
  },
  "methodIdentifiers": {
    "MIN_COLLATERIZATION_RATIO()": "35f2faf0",
    "burnDyad(uint256,uint256)": "16ae57a3",
    "collateral()": "d8dfeb45",
    "dNft()": "0f5eea91",
    "deposit(uint256,uint256)": "e2bbb158",
    "dyad()": "add95a51",
    "id2collateral(uint256)": "4ebd7e74",
    "id2dyad(uint256)": "cf748df9",
    "liquidate(uint256,address,uint256)": "79bd1eac",
    "mintDyad(uint256,address,uint256)": "176c0abd",
    "oracle()": "7dc0d1d0",
    "redeem(uint256,address,uint256)": "d8780161",
    "withdraw(uint256,address,uint256)": "e63697c8"
  },
  "id": 42
}