{
  "abi": [
    {
      "inputs": [],
      "stateMutability": "nonpayable",
      "type": "constructor"
    },
    {
      "inputs": [],
      "name": "CrTooHigh",
      "type": "error"
    },
    {
      "inputs": [],
      "name": "CrTooLow",
      "type": "error"
    },
    {
      "inputs": [],
      "name": "IncompleteRound",
      "type": "error"
    },
    {
      "inputs": [],
      "name": "InvalidNft",
      "type": "error"
    },
    {
      "inputs": [],
      "name": "MissingPermission",
      "type": "error"
    },
    {
      "inputs": [],
      "name": "NotOwner",
      "type": "error"
    },
    {
      "inputs": [],
      "name": "StaleData",
      "type": "error"
    },
    {
      "anonymous": false,
      "inputs": [
        {
          "indexed": true,
          "internalType": "uint256",
          "name": "id",
          "type": "uint256"
        },
        {
          "indexed": false,
          "internalType": "uint256",
          "name": "amount",
          "type": "uint256"
        }
      ],
      "name": "BurnDyad",
      "type": "event"
    },
    {
      "anonymous": false,
      "inputs": [
        {
          "indexed": true,
          "internalType": "uint256",
          "name": "id",
          "type": "uint256"
        },
        {
          "indexed": false,
          "internalType": "uint256",
          "name": "amount",
          "type": "uint256"
        }
      ],
      "name": "Deposit",
      "type": "event"
    },
    {
      "anonymous": false,
      "inputs": [
        {
          "indexed": false,
          "internalType": "uint8",
          "name": "version",
          "type": "uint8"
        }
      ],
      "name": "Initialized",
      "type": "event"
    },
    {
      "anonymous": false,
      "inputs": [
        {
          "indexed": true,
          "internalType": "uint256",
          "name": "id",
          "type": "uint256"
        },
        {
          "indexed": true,
          "internalType": "address",
          "name": "to",
          "type": "address"
        }
      ],
      "name": "Liquidate",
      "type": "event"
    },
    {
      "anonymous": false,
      "inputs": [
        {
          "indexed": true,
          "internalType": "uint256",
          "name": "from",
          "type": "uint256"
        },
        {
          "indexed": true,
          "internalType": "address",
          "name": "to",
          "type": "address"
        },
        {
          "indexed": false,
          "internalType": "uint256",
          "name": "amount",
          "type": "uint256"
        }
      ],
      "name": "MintDyad",
      "type": "event"
    },
    {
      "anonymous": false,
      "inputs": [
        {
          "indexed": true,
          "internalType": "uint256",
          "name": "from",
          "type": "uint256"
        },
        {
          "indexed": false,
          "internalType": "uint256",
          "name": "amount",
          "type": "uint256"
        },
        {
          "indexed": true,
          "internalType": "address",
          "name": "to",
          "type": "address"
        },
        {
          "indexed": false,
          "internalType": "uint256",
          "name": "eth",
          "type": "uint256"
        }
      ],
      "name": "Redeem",
      "type": "event"
    },
    {
      "anonymous": false,
      "inputs": [
        {
          "indexed": true,
          "internalType": "uint256",
          "name": "from",
          "type": "uint256"
        },
        {
          "indexed": true,
          "internalType": "address",
          "name": "to",
          "type": "address"
        },
        {
          "indexed": false,
          "internalType": "uint256",
          "name": "amount",
          "type": "uint256"
        }
      ],
      "name": "Withdraw",
      "type": "event"
    },
    {
      "inputs": [],
      "name": "MIN_COLLATERIZATION_RATIO",
      "outputs": [
        {
          "internalType": "uint256",
          "name": "",
          "type": "uint256"
        }
      ],
      "stateMutability": "view",
      "type": "function"
    },
    {
      "inputs": [
        {
          "internalType": "uint256",
          "name": "id",
          "type": "uint256"
        },
        {
          "internalType": "uint256",
          "name": "amount",
          "type": "uint256"
        }
      ],
      "name": "burnDyad",
      "outputs": [],
      "stateMutability": "nonpayable",
      "type": "function"
    },
    {
      "inputs": [],
      "name": "collateral",
      "outputs": [
        {
          "internalType": "contract IERC20",
          "name": "",
          "type": "address"
        }
      ],
      "stateMutability": "view",
      "type": "function"
    },
    {
      "inputs": [],
      "name": "dNft",
      "outputs": [
        {
          "internalType": "contract DNft",
          "name": "",
          "type": "address"
        }
      ],
      "stateMutability": "view",
      "type": "function"
    },
    {
      "inputs": [
        {
          "internalType": "uint256",
          "name": "id",
          "type": "uint256"
        },
        {
          "internalType": "uint256",
          "name": "amount",
          "type": "uint256"
        }
      ],
      "name": "deposit",
      "outputs": [],
      "stateMutability": "nonpayable",
      "type": "function"
    },
    {
      "inputs": [],
      "name": "dyad",
      "outputs": [
        {
          "internalType": "contract Dyad",
          "name": "",
          "type": "address"
        }
      ],
      "stateMutability": "view",
      "type": "function"
    },
    {
      "inputs": [
        {
          "internalType": "uint256",
          "name": "",
          "type": "uint256"
        }
      ],
      "name": "id2collateral",
      "outputs": [
        {
          "internalType": "uint256",
          "name": "",
          "type": "uint256"
        }
      ],
      "stateMutability": "view",
      "type": "function"
    },
    {
      "inputs": [
        {
          "internalType": "uint256",
          "name": "",
          "type": "uint256"
        }
      ],
      "name": "id2dyad",
      "outputs": [
        {
          "internalType": "uint256",
          "name": "",
          "type": "uint256"
        }
      ],
      "stateMutability": "view",
      "type": "function"
    },
    {
      "inputs": [
        {
          "internalType": "address",
          "name": "_dNft",
          "type": "address"
        },
        {
          "internalType": "address",
          "name": "_dyad",
          "type": "address"
        },
        {
          "internalType": "address",
          "name": "_collateral",
          "type": "address"
        },
        {
          "internalType": "address",
          "name": "_oracle",
          "type": "address"
        }
      ],
      "name": "initialize",
      "outputs": [],
      "stateMutability": "nonpayable",
      "type": "function"
    },
    {
      "inputs": [
        {
          "internalType": "uint256",
          "name": "id",
          "type": "uint256"
        },
        {
          "internalType": "address",
          "name": "to",
          "type": "address"
        },
        {
          "internalType": "uint256",
          "name": "amount",
          "type": "uint256"
        }
      ],
      "name": "liquidate",
      "outputs": [],
      "stateMutability": "nonpayable",
      "type": "function"
    },
    {
      "inputs": [
        {
          "internalType": "uint256",
          "name": "from",
          "type": "uint256"
        },
        {
          "internalType": "address",
          "name": "to",
          "type": "address"
        },
        {
          "internalType": "uint256",
          "name": "amount",
          "type": "uint256"
        }
      ],
      "name": "mintDyad",
      "outputs": [],
      "stateMutability": "nonpayable",
      "type": "function"
    },
    {
      "inputs": [],
      "name": "oracle",
      "outputs": [
        {
          "internalType": "contract IAggregatorV3",
          "name": "",
          "type": "address"
        }
      ],
      "stateMutability": "view",
      "type": "function"
    },
    {
      "inputs": [
        {
          "internalType": "uint256",
          "name": "from",
          "type": "uint256"
        },
        {
          "internalType": "address",
          "name": "to",
          "type": "address"
        },
        {
          "internalType": "uint256",
          "name": "amount",
          "type": "uint256"
        }
      ],
      "name": "redeem",
      "outputs": [
        {
          "internalType": "uint256",
          "name": "",
          "type": "uint256"
        }
      ],
      "stateMutability": "nonpayable",
      "type": "function"
    },
    {
      "inputs": [
        {
          "internalType": "uint256",
          "name": "from",
          "type": "uint256"
        },
        {
          "internalType": "address",
          "name": "to",
          "type": "address"
        },
        {
          "internalType": "uint256",
          "name": "amount",
          "type": "uint256"
        }
      ],
      "name": "withdraw",
      "outputs": [],
      "stateMutability": "nonpayable",
      "type": "function"
    }
  ],
  "bytecode": {
    "object": "0x608060405234801561001057600080fd5b5061001961001e565b6100de565b600054610100900460ff161561008a5760405162461bcd60e51b815260206004820152602760248201527f496e697469616c697a61626c653a20636f6e747261637420697320696e697469604482015266616c697a696e6760c81b606482015260840160405180910390fd5b60005460ff90811610156100dc576000805460ff191660ff9081179091556040519081527f7f26b83ff96e1f2b6a682f133852f6798a09c465da95921460cefb38474024989060200160405180910390a15b565b6114c6806100ed6000396000f3fe608060405234801561001057600080fd5b50600436106100ea5760003560e01c8063add95a511161008c578063d8dfeb4511610066578063d8dfeb4514610224578063e2bbb15814610244578063e63697c814610257578063f8c8765e1461026a57600080fd5b8063add95a51146101d1578063cf748df9146101f1578063d87801611461021157600080fd5b806335f2faf0116100c857806335f2faf0146101615780634ebd7e741461017e57806379bd1eac1461019e5780637dc0d1d0146101b157600080fd5b80630f5eea91146100ef57806316ae57a314610139578063176c0abd1461014e575b600080fd5b60035461010f9073ffffffffffffffffffffffffffffffffffffffff1681565b60405173ffffffffffffffffffffffffffffffffffffffff90911681526020015b60405180910390f35b61014c610147366004611257565b61027d565b005b61014c61015c3660046112a2565b610366565b6101706729a2241af62c000081565b604051908152602001610130565b61017061018c3660046112d7565b60016020526000908152604090205481565b61014c6101ac3660046112a2565b610588565b60065461010f9073ffffffffffffffffffffffffffffffffffffffff1681565b60045461010f9073ffffffffffffffffffffffffffffffffffffffff1681565b6101706101ff3660046112d7565b60026020526000908152604090205481565b61017061021f3660046112a2565b610713565b60055461010f9073ffffffffffffffffffffffffffffffffffffffff1681565b61014c610252366004611257565b6109de565b61014c6102653660046112a2565b610ba8565b61014c6102783660046112f0565b610dcc565b600480546040517f9dc29fac00000000000000000000000000000000000000000000000000000000815233928101929092526024820183905273ffffffffffffffffffffffffffffffffffffffff1690639dc29fac90604401600060405180830381600087803b1580156102f057600080fd5b505af1158015610304573d6000803e3d6000fd5b50505060008381526002602052604081208054849350909190610328908490611373565b909155505060405181815282907fbc4444983b3b8260a57895352d214c2bbcd71114f2b49bea20e76cd64999a7cf9060200160405180910390a25050565b6003546040517f4cf1585800000000000000000000000000000000000000000000000000000000815260048101859052336024820152849173ffffffffffffffffffffffffffffffffffffffff1690634cf1585890604401602060405180830381865afa1580156103db573d6000803e3d6000fd5b505050506040513d601f19601f820116820180604052508101906103ff9190611386565b610435576040517f3f904dc000000000000000000000000000000000000000000000000000000000815260040160405180910390fd5b600084815260026020526040812080548492906104539084906113a8565b909155506729a2241af62c0000905061046b85610fce565b10156104a3576040517f40da557a00000000000000000000000000000000000000000000000000000000815260040160405180910390fd5b600480546040517f40c10f1900000000000000000000000000000000000000000000000000000000815273ffffffffffffffffffffffffffffffffffffffff86811693820193909352602481018590529116906340c10f1990604401600060405180830381600087803b15801561051957600080fd5b505af115801561052d573d6000803e3d6000fd5b505050508273ffffffffffffffffffffffffffffffffffffffff16847fc7a0f9746296432bab185f8f0020c7c9489291fd5cfac7593c7665f72bc9d9c48460405161057a91815260200190565b60405180910390a350505050565b6729a2241af62c000061059a84610fce565b106105d1576040517f05e666e800000000000000000000000000000000000000000000000000000000815260040160405180910390fd5b600083815260016020526040812080548392906105ef9084906113a8565b909155506729a2241af62c0000905061060784610fce565b101561063f576040517f40da557a00000000000000000000000000000000000000000000000000000000815260040160405180910390fd5b6003546040517f5fae8b3d0000000000000000000000000000000000000000000000000000000081526004810185905273ffffffffffffffffffffffffffffffffffffffff848116602483015290911690635fae8b3d90604401600060405180830381600087803b1580156106b357600080fd5b505af11580156106c7573d6000803e3d6000fd5b505060405173ffffffffffffffffffffffffffffffffffffffff851692508591507f9d57e76bcd4b88b0969cb0e0333b5da0931cb34b689f331b40e564e3f76a2f5a90600090a3505050565b6003546040517f4cf1585800000000000000000000000000000000000000000000000000000000815260048101859052336024820152600091859173ffffffffffffffffffffffffffffffffffffffff90911690634cf1585890604401602060405180830381865afa15801561078d573d6000803e3d6000fd5b505050506040513d601f19601f820116820180604052508101906107b19190611386565b6107e7576040517f3f904dc000000000000000000000000000000000000000000000000000000000815260040160405180910390fd5b600480546040517f9dc29fac00000000000000000000000000000000000000000000000000000000815233928101929092526024820185905273ffffffffffffffffffffffffffffffffffffffff1690639dc29fac90604401600060405180830381600087803b15801561085a57600080fd5b505af115801561086e573d6000803e3d6000fd5b50505060008681526002602052604081208054869350909190610892908490611373565b90915550600090506108a261104d565b6108b0856305f5e1006113bb565b6108ba91906113d2565b9050806001600088815260200190815260200160002060008282546108df9190611373565b90915550506005546040517fa9059cbb00000000000000000000000000000000000000000000000000000000815273ffffffffffffffffffffffffffffffffffffffff8781166004830152602482018790529091169063a9059cbb906044016020604051808303816000875af115801561095d573d6000803e3d6000fd5b505050506040513d601f19601f820116820180604052508101906109819190611386565b50604080518581526020810183905273ffffffffffffffffffffffffffffffffffffffff87169188917fdd2d8631d27ce277aa03636f75ad665aa9f13516ec654fce871f889eb15cf6c7910160405180910390a395945050505050565b600354604080517f18160ddd0000000000000000000000000000000000000000000000000000000081529051849273ffffffffffffffffffffffffffffffffffffffff16916318160ddd9160048083019260209291908290030181865afa158015610a4d573d6000803e3d6000fd5b505050506040513d601f19601f82011682018060405250810190610a71919061140d565b8110610aa9576040517f0ff2075600000000000000000000000000000000000000000000000000000000815260040160405180910390fd5b6005546040517f23b872dd0000000000000000000000000000000000000000000000000000000081523360048201523060248201526044810184905273ffffffffffffffffffffffffffffffffffffffff909116906323b872dd906064016020604051808303816000875af1158015610b26573d6000803e3d6000fd5b505050506040513d601f19601f82011682018060405250810190610b4a9190611386565b5060008381526001602052604081208054849290610b699084906113a8565b909155505060405182815283907fa3af609bf46297028ce551832669030f9effef2b02606d02cbbcc40fe6b47c559060200160405180910390a2505050565b6003546040517f4cf1585800000000000000000000000000000000000000000000000000000000815260048101859052336024820152849173ffffffffffffffffffffffffffffffffffffffff1690634cf1585890604401602060405180830381865afa158015610c1d573d6000803e3d6000fd5b505050506040513d601f19601f82011682018060405250810190610c419190611386565b610c77576040517f3f904dc000000000000000000000000000000000000000000000000000000000815260040160405180910390fd5b60008481526001602052604081208054849290610c95908490611373565b909155506729a2241af62c00009050610cad85610fce565b1015610ce5576040517f40da557a00000000000000000000000000000000000000000000000000000000815260040160405180910390fd5b6005546040517fa9059cbb00000000000000000000000000000000000000000000000000000000815273ffffffffffffffffffffffffffffffffffffffff8581166004830152602482018590529091169063a9059cbb906044016020604051808303816000875af1158015610d5e573d6000803e3d6000fd5b505050506040513d601f19601f82011682018060405250810190610d829190611386565b508273ffffffffffffffffffffffffffffffffffffffff16847f9da6493a92039daf47d1f2d7a782299c5994c6323eb1e972f69c432089ec52bf8460405161057a91815260200190565b600054610100900460ff1615808015610dec5750600054600160ff909116105b80610e065750303b158015610e06575060005460ff166001145b610e97576040517f08c379a000000000000000000000000000000000000000000000000000000000815260206004820152602e60248201527f496e697469616c697a61626c653a20636f6e747261637420697320616c72656160448201527f647920696e697469616c697a656400000000000000000000000000000000000060648201526084015b60405180910390fd5b600080547fffffffffffffffffffffffffffffffffffffffffffffffffffffffffffffff001660011790558015610ef557600080547fffffffffffffffffffffffffffffffffffffffffffffffffffffffffffff00ff166101001790555b6003805473ffffffffffffffffffffffffffffffffffffffff8088167fffffffffffffffffffffffff000000000000000000000000000000000000000092831617909255600480548784169083161790556005805486841690831617905560068054928516929091169190911790558015610fc757600080547fffffffffffffffffffffffffffffffffffffffffffffffffffffffffffff00ff169055604051600181527f7f26b83ff96e1f2b6a682f133852f6798a09c465da95921460cefb38474024989060200160405180910390a15b5050505050565b60008181526002602052604081205480820361100c57507fffffffffffffffffffffffffffffffffffffffffffffffffffffffffffffffff92915050565b611046816305f5e10061101d61104d565b60008781526001602052604090205461103691906113bb565b61104091906113d2565b9061118d565b9392505050565b6000806000806000600660009054906101000a900473ffffffffffffffffffffffffffffffffffffffff1673ffffffffffffffffffffffffffffffffffffffff1663feaf968c6040518163ffffffff1660e01b815260040160a060405180830381865afa1580156110c2573d6000803e3d6000fd5b505050506040513d601f19601f820116820180604052508101906110e69190611440565b94509450509350935081600003611129576040517f8ad52bdd00000000000000000000000000000000000000000000000000000000815260040160405180910390fd5b8369ffffffffffffffffffff168169ffffffffffffffffffff16101561117b576040517f6ead710b00000000000000000000000000000000000000000000000000000000815260040160405180910390fd5b611184836111ab565b94505050505090565b60006111a283670de0b6b3a76400008461121b565b90505b92915050565b600080821215611217576040517f08c379a000000000000000000000000000000000000000000000000000000000815260206004820181905260248201527f53616665436173743a2076616c7565206d75737420626520706f7369746976656044820152606401610e8e565b5090565b6000827fffffffffffffffffffffffffffffffffffffffffffffffffffffffffffffffff048411830215820261125057600080fd5b5091020490565b6000806040838503121561126a57600080fd5b50508035926020909101359150565b803573ffffffffffffffffffffffffffffffffffffffff8116811461129d57600080fd5b919050565b6000806000606084860312156112b757600080fd5b833592506112c760208501611279565b9150604084013590509250925092565b6000602082840312156112e957600080fd5b5035919050565b6000806000806080858703121561130657600080fd5b61130f85611279565b935061131d60208601611279565b925061132b60408601611279565b915061133960608601611279565b905092959194509250565b7f4e487b7100000000000000000000000000000000000000000000000000000000600052601160045260246000fd5b818103818111156111a5576111a5611344565b60006020828403121561139857600080fd5b8151801515811461104657600080fd5b808201808211156111a5576111a5611344565b80820281158282048414176111a5576111a5611344565b600082611408577f4e487b7100000000000000000000000000000000000000000000000000000000600052601260045260246000fd5b500490565b60006020828403121561141f57600080fd5b5051919050565b805169ffffffffffffffffffff8116811461129d57600080fd5b600080600080600060a0868803121561145857600080fd5b61146186611426565b945060208601519350604086015192506060860151915061148460808701611426565b9050929550929590935056fea26469706673582212205fa517ab6d340d6883ed21a2f8bad42af3049dd49fc139f6a8833b129ce4754964736f6c63430008110033",
    "linkReferences": {}
  },
  "methodIdentifiers": {
    "MIN_COLLATERIZATION_RATIO()": "35f2faf0",
    "burnDyad(uint256,uint256)": "16ae57a3",
    "collateral()": "d8dfeb45",
    "dNft()": "0f5eea91",
    "deposit(uint256,uint256)": "e2bbb158",
    "dyad()": "add95a51",
    "id2collateral(uint256)": "4ebd7e74",
    "id2dyad(uint256)": "cf748df9",
    "initialize(address,address,address,address)": "f8c8765e",
    "liquidate(uint256,address,uint256)": "79bd1eac",
    "mintDyad(uint256,address,uint256)": "176c0abd",
    "oracle()": "7dc0d1d0",
    "redeem(uint256,address,uint256)": "d8780161",
    "withdraw(uint256,address,uint256)": "e63697c8"
  },
  "id": 51
}