{
  "abi": [
    {
      "inputs": [
        {
          "internalType": "uint256",
          "name": "shares",
          "type": "uint256"
        },
        {
          "internalType": "uint256",
          "name": "totalDeposit",
          "type": "uint256"
        },
        {
          "internalType": "uint256",
          "name": "totalShares",
          "type": "uint256"
        }
      ],
      "name": "shares2Deposit",
      "outputs": [
        {
          "internalType": "uint256",
          "name": "",
          "type": "uint256"
        }
      ],
      "stateMutability": "pure",
      "type": "function"
    }
  ],
  "bytecode": {
    "object": "0x61011061003a600b82828239805160001a60731461002d57634e487b7160e01b600052600060045260246000fd5b30600052607381538281f3fe730000000000000000000000000000000000000000301460806040526004361060335760003560e01c80638b6eb0e9146038575b600080fd5b6047604336600460af565b6059565b60405190815260200160405180910390f35b60006064848484606c565b949350505050565b6000827fffffffffffffffffffffffffffffffffffffffffffffffffffffffffffffffff048411830215820260a057600080fd5b50910281810615159190040190565b60008060006060848603121560c357600080fd5b50508135936020830135935060409092013591905056fea264697066735822122009cf07c23b3e82b062c0a96eed9188a6a6d3f6d4eaf4a7f7b0aad1a8492f3f7064736f6c63430008110033",
    "linkReferences": {}
  },
  "methodIdentifiers": {
    "shares2Deposit(uint256,uint256,uint256)": "8b6eb0e9"
  },
  "id": 46
}